{
  "_format": "hh-sol-artifact-1",
  "contractName": "MetaHackerMetadata",
  "sourceName": "contracts/MetaHackerMetadata.sol",
  "abi": [
    {
      "inputs": [
        {
          "internalType": "contract IMetaHackerMotherBase",
          "name": "_metahackermotherbase",
          "type": "address"
        },
        {
          "internalType": "contract IMetaHackerEngine",
          "name": "_metahackerengine",
          "type": "address"
        }
      ],
      "stateMutability": "nonpayable",
      "type": "constructor"
    },
    {
      "inputs": [
        {
          "internalType": "enum IMetaHackerDNA.Generation",
          "name": "generation",
          "type": "uint8"
        },
        {
          "internalType": "uint256",
          "name": "tokenId",
          "type": "uint256"
        }
      ],
      "name": "generateAttribute",
      "outputs": [
        {
          "internalType": "string",
          "name": "attribute",
          "type": "string"
        }
      ],
      "stateMutability": "view",
      "type": "function"
    },
    {
      "inputs": [
        {
          "internalType": "uint8",
          "name": "_ranking",
          "type": "uint8"
        }
      ],
      "name": "getBoost",
      "outputs": [
        {
          "internalType": "uint8",
          "name": "boost",
          "type": "uint8"
        }
      ],
      "stateMutability": "view",
      "type": "function"
    }
  ],
  "bytecode": "0x60806040523480156200001157600080fd5b50604051620022e5380380620022e58339818101604052810190620000379190620001d5565b816000806101000a81548173ffffffffffffffffffffffffffffffffffffffff021916908373ffffffffffffffffffffffffffffffffffffffff16021790555080600160006101000a81548173ffffffffffffffffffffffffffffffffffffffff021916908373ffffffffffffffffffffffffffffffffffffffff16021790555060006002600060048110620000d257620000d162000278565b5b602091828204019190066101000a81548160ff021916908360ff160217905550600560026001600481106200010c576200010b62000278565b5b602091828204019190066101000a81548160ff021916908360ff160217905550600a6002806004811062000145576200014462000278565b5b602091828204019190066101000a81548160ff021916908360ff160217905550601460026003600481106200017f576200017e62000278565b5b602091828204019190066101000a81548160ff021916908360ff1602179055505050620002e0565b600081519050620001b881620002ac565b92915050565b600081519050620001cf81620002c6565b92915050565b60008060408385031215620001ef57620001ee620002a7565b5b6000620001ff85828601620001be565b92505060206200021285828601620001a7565b9150509250929050565b6000620002298262000258565b9050919050565b60006200023d826200021c565b9050919050565b600062000251826200021c565b9050919050565b600073ffffffffffffffffffffffffffffffffffffffff82169050919050565b7f4e487b7100000000000000000000000000000000000000000000000000000000600052603260045260246000fd5b600080fd5b620002b78162000230565b8114620002c357600080fd5b50565b620002d18162000244565b8114620002dd57600080fd5b50565b611ff580620002f06000396000f3fe608060405234801561001057600080fd5b50600436106100365760003560e01c80630a4a3c9f1461003b5780634732ac611461006b575b600080fd5b61005560048036038101906100509190610c82565b61009b565b60405161006291906116da565b60405180910390f35b61008560048036038101906100809190610b9d565b6100d1565b60405161009291906116b8565b60405180910390f35b600060028260ff16600481106100b4576100b36119f4565b5b602091828204019190069054906101000a900460ff169050919050565b606060006100df848461011d565b905060006100ed858561023f565b90506100f982826102d1565b92506000610106866102fd565b905061011284826102d1565b935050505092915050565b6060600061012b84846103c0565b90506000610142856000846000015160ff1661047e565b90506000610159866001856020015160ff1661047e565b90506000610170876002866040015160ff1661047e565b90506000610187886003876060015160ff1661047e565b9050600061019e896004886080015160ff1661047e565b905060006101b58a60058960a0015160ff1661047e565b905060006101cc8b60068a60c0015160ff1661047e565b905060006101e38c60078b60e0015160ff1661047e565b905060006101fb8d60088c610100015160ff1661047e565b905088888888888888888860405160200161021e9998979695949392919061147f565b6040516020818303038152906040529a505050505050505050505092915050565b6060600061024d848461053b565b9050600060028260ff1660048110610268576102676119f4565b5b602091828204019190069054906101000a900460ff16905061028c8160ff166105f2565b6102a78660048111156102a2576102a16119c5565b5b6105f2565b6040516020016102b8929190611403565b6040516020818303038152906040529250505092915050565b606082826040516020016102e692919061119b565b604051602081830303815290604052905092915050565b6060600061030a8361077b565b905061031981600001516105f2565b61032682602001516105f2565b61033383604001516105f2565b61034084606001516105f2565b61034d85608001516105f2565b61035a8660a001516105f2565b6103678760c001516105f2565b6103748860e001516105f2565b6103828961010001516105f2565b6103908a61012001516105f2565b6040516020016103a99a999897969594939291906111bf565b604051602081830303815290604052915050919050565b6103c8610834565b600160009054906101000a900473ffffffffffffffffffffffffffffffffffffffff1673ffffffffffffffffffffffffffffffffffffffff16637228fbf484846040518363ffffffff1660e01b8152600401610425929190611658565b6101206040518083038186803b15801561043e57600080fd5b505afa158015610452573d6000803e3d6000fd5b505050506040513d601f19601f820116820180604052508101906104769190610c26565b905092915050565b606060008054906101000a900473ffffffffffffffffffffffffffffffffffffffff1673ffffffffffffffffffffffffffffffffffffffff166331c3caa08585856040518463ffffffff1660e01b81526004016104dd93929190611681565b60006040518083038186803b1580156104f557600080fd5b505afa158015610509573d6000803e3d6000fd5b505050506040513d6000823e3d601f19601f820116820180604052508101906105329190610bdd565b90509392505050565b6000600160009054906101000a900473ffffffffffffffffffffffffffffffffffffffff1673ffffffffffffffffffffffffffffffffffffffff16631f76fcb784846040518363ffffffff1660e01b815260040161059a929190611658565b60206040518083038186803b1580156105b257600080fd5b505afa1580156105c6573d6000803e3d6000fd5b505050506040513d601f19601f820116820180604052508101906105ea9190610caf565b905092915050565b6060600082141561063a576040518060400160405280600181526020017f30000000000000000000000000000000000000000000000000000000000000008152509050610776565b600082905060005b6000821461066c5780806106559061191e565b915050600a8261066591906117bf565b9150610642565b60008167ffffffffffffffff81111561068857610687611a23565b5b6040519080825280601f01601f1916602001820160405280156106ba5781602001600182028036833780820191505090505b50905060008290505b6000861461076e576001816106d8919061184a565b90506000600a80886106ea91906117bf565b6106f491906117f0565b876106ff919061184a565b603061070b9190611788565b905060008160f81b905080848481518110610729576107286119f4565b5b60200101907effffffffffffffffffffffffffffffffffffffffffffffffffffffffffffff1916908160001a905350600a8861076591906117bf565b975050506106c3565b819450505050505b919050565b61078361089b565b60008054906101000a900473ffffffffffffffffffffffffffffffffffffffff1673ffffffffffffffffffffffffffffffffffffffff16639e11dda9836040518263ffffffff1660e01b81526004016107dc919061163d565b6101406040518083038186803b1580156107f557600080fd5b505afa158015610809573d6000803e3d6000fd5b505050506040513d601f19601f8201168201806040525081019061082d9190610c54565b9050919050565b604051806101200160405280600060ff168152602001600060ff168152602001600060ff168152602001600060ff168152602001600060ff168152602001600060ff168152602001600060ff168152602001600060ff168152602001600060ff1681525090565b604051806101400160405280600081526020016000815260200160008152602001600081526020016000815260200160008152602001600081526020016000815260200160008152602001600081525090565b60006109016108fc8461171a565b6116f5565b90508281526020810184848401111561091d5761091c611a5c565b5b6109288482856118ba565b509392505050565b60008135905061093f81611f81565b92915050565b600082601f83011261095a57610959611a52565b5b815161096a8482602086016108ee565b91505092915050565b6000610120828403121561098a57610989611a57565b5b6109956101206116f5565b905060006109a584828501610b88565b60008301525060206109b984828501610b88565b60208301525060406109cd84828501610b88565b60408301525060606109e184828501610b88565b60608301525060806109f584828501610b88565b60808301525060a0610a0984828501610b88565b60a08301525060c0610a1d84828501610b88565b60c08301525060e0610a3184828501610b88565b60e083015250610100610a4684828501610b88565b6101008301525092915050565b60006101408284031215610a6a57610a69611a57565b5b610a756101406116f5565b90506000610a8584828501610b5e565b6000830152506020610a9984828501610b5e565b6020830152506040610aad84828501610b5e565b6040830152506060610ac184828501610b5e565b6060830152506080610ad584828501610b5e565b60808301525060a0610ae984828501610b5e565b60a08301525060c0610afd84828501610b5e565b60c08301525060e0610b1184828501610b5e565b60e083015250610100610b2684828501610b5e565b61010083015250610120610b3c84828501610b5e565b6101208301525092915050565b600081359050610b5881611f91565b92915050565b600081519050610b6d81611f91565b92915050565b600081359050610b8281611fa8565b92915050565b600081519050610b9781611fa8565b92915050565b60008060408385031215610bb457610bb3611a66565b5b6000610bc285828601610930565b9250506020610bd385828601610b49565b9150509250929050565b600060208284031215610bf357610bf2611a66565b5b600082015167ffffffffffffffff811115610c1157610c10611a61565b5b610c1d84828501610945565b91505092915050565b60006101208284031215610c3d57610c3c611a66565b5b6000610c4b84828501610973565b91505092915050565b60006101408284031215610c6b57610c6a611a66565b5b6000610c7984828501610a53565b91505092915050565b600060208284031215610c9857610c97611a66565b5b6000610ca684828501610b73565b91505092915050565b600060208284031215610cc557610cc4611a66565b5b6000610cd384828501610b88565b91505092915050565b6000610ce78261174b565b610cf18185611761565b9350610d018185602086016118ba565b80840191505092915050565b610d16816118a8565b82525050565b6000610d2782611756565b610d31818561176c565b9350610d418185602086016118ba565b610d4a81611a6b565b840191505092915050565b6000610d6082611756565b610d6a818561177d565b9350610d7a8185602086016118ba565b80840191505092915050565b6000610d9360208361177d565b9150610d9e82611a7c565b602082019050919050565b6000610db660178361177d565b9150610dc182611aa5565b601782019050919050565b6000610dd960168361177d565b9150610de482611ace565b601682019050919050565b6000610dfc60248361177d565b9150610e0782611af7565b602482019050919050565b6000610e1f601f8361177d565b9150610e2a82611b46565b601f82019050919050565b6000610e4260178361177d565b9150610e4d82611b6f565b601782019050919050565b6000610e6560038361177d565b9150610e7082611b98565b600382019050919050565b6000610e88601c8361177d565b9150610e9382611bc1565b601c82019050919050565b6000610eab601b8361177d565b9150610eb682611bea565b601b82019050919050565b6000610ece601c8361177d565b9150610ed982611c13565b601c82019050919050565b6000610ef160188361177d565b9150610efc82611c3c565b601882019050919050565b6000610f14601e8361177d565b9150610f1f82611c65565b601e82019050919050565b6000610f37601b8361177d565b9150610f4282611c8e565b601b82019050919050565b6000610f5a60048361177d565b9150610f6582611cb7565b600482019050919050565b6000610f7d60168361177d565b9150610f8882611ce0565b601682019050919050565b6000610fa060168361177d565b9150610fab82611d09565b601682019050919050565b6000610fc360098361177d565b9150610fce82611d32565b600982019050919050565b6000610fe6601c8361177d565b9150610ff182611d5b565b601c82019050919050565b6000611009601b8361177d565b915061101482611d84565b601b82019050919050565b600061102c60018361177d565b915061103782611dad565b600182019050919050565b600061104f60198361177d565b915061105a82611dd6565b601982019050919050565b6000611072601c8361177d565b915061107d82611dff565b601c82019050919050565b6000611095601b8361177d565b91506110a082611e28565b601b82019050919050565b60006110b8601a8361177d565b91506110c382611e51565b601a82019050919050565b60006110db601d8361177d565b91506110e682611e7a565b601d82019050919050565b60006110fe60238361177d565b915061110982611ea3565b602382019050919050565b6000611121600d8361177d565b915061112c82611ef2565b600d82019050919050565b600061114460168361177d565b915061114f82611f1b565b601682019050919050565b6000611167601c8361177d565b915061117282611f44565b601c82019050919050565b61118681611891565b82525050565b6111958161189b565b82525050565b60006111a78285610cdc565b91506111b38284610cdc565b91508190509392505050565b60006111ca82610d86565b91506111d582610ee4565b91506111e082610fb6565b91506111ec828d610d55565b91506111f782610e58565b915061120282610d86565b915061120d82610f70565b915061121882610fb6565b9150611224828c610d55565b915061122f82610e58565b915061123a82610d86565b915061124582611065565b915061125082610fb6565b915061125c828b610d55565b915061126782610e58565b915061127282610d86565b915061127d826110ce565b915061128882610fb6565b9150611294828a610d55565b915061129f82610e58565b91506112aa82610d86565b91506112b582610f2a565b91506112c082610fb6565b91506112cc8289610d55565b91506112d782610e58565b91506112e282610d86565b91506112ed82610ffc565b91506112f882610fb6565b91506113048288610d55565b915061130f82610e58565b915061131a82610d86565b9150611325826110f1565b915061133082610fb6565b915061133c8287610d55565b915061134782610e58565b915061135282610d86565b915061135d82610da9565b915061136882610fb6565b91506113748286610d55565b915061137f82610e58565b915061138a82610d86565b91506113958261115a565b91506113a082610fb6565b91506113ac8285610d55565b91506113b782610e58565b91506113c282610d86565b91506113cd82610f07565b91506113d882610fb6565b91506113e48284610d55565b91506113ef82610f4d565b91508190509b9a5050505050505050505050565b600061140e82610def565b915061141982610f93565b915061142482610fb6565b91506114308285610d55565b915061143b82610e58565b9150611446826110ab565b915061145182610e9e565b915061145c82610fb6565b91506114688284610d55565b915061147382610e58565b91508190509392505050565b600061148a82611114565b91506114958261101f565b91506114a082611137565b91506114ab82610fb6565b91506114b7828c610d55565b91506114c282610e58565b91506114cd82610ec1565b91506114d882610fb6565b91506114e4828b610d55565b91506114ef82610e58565b91506114fa82610fd9565b915061150582610fb6565b9150611511828a610d55565b915061151c82610e58565b915061152782610e7b565b915061153282610fb6565b915061153e8289610d55565b915061154982610e58565b915061155482611088565b915061155f82610fb6565b915061156b8288610d55565b915061157682610e58565b915061158182610e35565b915061158c82610fb6565b91506115988287610d55565b91506115a382610e58565b91506115ae82610dcc565b91506115b982610fb6565b91506115c58286610d55565b91506115d082610e58565b91506115db82610e12565b91506115e682610fb6565b91506115f28285610d55565b91506115fd82610e58565b915061160882611042565b915061161382610fb6565b915061161f8284610d55565b915061162a82610e58565b91508190509a9950505050505050505050565b60006020820190506116526000830184610d0d565b92915050565b600060408201905061166d6000830185610d0d565b61167a602083018461117d565b9392505050565b60006060820190506116966000830186610d0d565b6116a3602083018561117d565b6116b0604083018461117d565b949350505050565b600060208201905081810360008301526116d28184610d1c565b905092915050565b60006020820190506116ef600083018461118c565b92915050565b60006116ff611710565b905061170b82826118ed565b919050565b6000604051905090565b600067ffffffffffffffff82111561173557611734611a23565b5b61173e82611a6b565b9050602081019050919050565b600081519050919050565b600081519050919050565b600081905092915050565b600082825260208201905092915050565b600081905092915050565b60006117938261189b565b915061179e8361189b565b92508260ff038211156117b4576117b3611967565b5b828201905092915050565b60006117ca82611891565b91506117d583611891565b9250826117e5576117e4611996565b5b828204905092915050565b60006117fb82611891565b915061180683611891565b9250817fffffffffffffffffffffffffffffffffffffffffffffffffffffffffffffffff048311821515161561183f5761183e611967565b5b828202905092915050565b600061185582611891565b915061186083611891565b92508282101561187357611872611967565b5b828203905092915050565b600081905061188c82611f6d565b919050565b6000819050919050565b600060ff82169050919050565b60006118b38261187e565b9050919050565b60005b838110156118d85780820151818401526020810190506118bd565b838111156118e7576000848401525b50505050565b6118f682611a6b565b810181811067ffffffffffffffff8211171561191557611914611a23565b5b80604052505050565b600061192982611891565b91507fffffffffffffffffffffffffffffffffffffffffffffffffffffffffffffffff82141561195c5761195b611967565b5b600182019050919050565b7f4e487b7100000000000000000000000000000000000000000000000000000000600052601160045260246000fd5b7f4e487b7100000000000000000000000000000000000000000000000000000000600052601260045260246000fd5b7f4e487b7100000000000000000000000000000000000000000000000000000000600052602160045260246000fd5b7f4e487b7100000000000000000000000000000000000000000000000000000000600052603260045260246000fd5b7f4e487b7100000000000000000000000000000000000000000000000000000000600052604160045260246000fd5b600080fd5b600080fd5b600080fd5b600080fd5b600080fd5b6000601f19601f8301169050919050565b7f7b22646973706c61795f74797065223a2022626f6f73745f6e756d626572222c600082015250565b7f2274726169745f74797065223a2022736f6369616c222c000000000000000000600082015250565b7f7b2274726169745f74797065223a202248616972222c00000000000000000000600082015250565b7f7b22646973706c61795f74797065223a2022626f6f73745f70657263656e746160008201527f6765222c00000000000000000000000000000000000000000000000000000000602082015250565b7f7b2274726169745f74797065223a2022476c6173736573205368617065222c00600082015250565b7f7b2274726169745f74797065223a20224d6f757468222c000000000000000000600082015250565b7f227d2c0000000000000000000000000000000000000000000000000000000000600082015250565b7f7b2274726169745f74797065223a2022426f6479205368617065222c00000000600082015250565b7f2274726169745f74797065223a202267656e65726174696f6e222c0000000000600082015250565b7f7b2274726169745f74797065223a2022426f647920436f6c6f72222c00000000600082015250565b7f2274726169745f74797065223a202262726176657279222c0000000000000000600082015250565b7f2274726169745f74797065223a2022746563686e6f6c6f676963616c222c0000600082015250565b7f2274726169745f74797065223a20226c656164657273686970222c0000000000600082015250565b7f227d5d2c00000000000000000000000000000000000000000000000000000000600082015250565b7f2274726169745f74797065223a202268756d6f72222c00000000000000000000600082015250565b7f2274726169745f74797065223a2022626f6f7374222c00000000000000000000600082015250565b7f2276616c7565223a220000000000000000000000000000000000000000000000600082015250565b7f7b2274726169745f74797065223a20224261636b205368617065222c00000000600082015250565b7f2274726169745f74797065223a20226d65746176657273616c222c0000000000600082015250565b7f5b00000000000000000000000000000000000000000000000000000000000000600082015250565b7f7b2274726169745f74797065223a2022436c6f74686573222c00000000000000600082015250565b7f2274726169745f74797065223a2022696d6167696e6174696f6e222c00000000600082015250565b7f7b2274726169745f74797065223a20224579657342726f7773222c0000000000600082015250565b7f7b22646973706c61795f74797065223a20226e756d626572222c000000000000600082015250565b7f2274726169745f74797065223a2022696e74656c6c6967656e6365222c000000600082015250565b7f2274726169745f74797065223a20227072657373757265526573697374616e6360008201527f65222c0000000000000000000000000000000000000000000000000000000000602082015250565b7f2261747472696275746573223a00000000000000000000000000000000000000600082015250565b7f7b2274726169745f74797065223a202252616e6b222c00000000000000000000600082015250565b7f2274726169745f74797065223a20227465616d776f726b696e67222c00000000600082015250565b60058110611f7e57611f7d6119c5565b5b50565b60058110611f8e57600080fd5b50565b611f9a81611891565b8114611fa557600080fd5b50565b611fb18161189b565b8114611fbc57600080fd5b5056fea26469706673582212201c183d298b61b7709d306f20b3eff5da249a843cf1615e2568fdb4bf968cbdd664736f6c63430008070033",
  "linkReferences": {},
  "deployedLinkReferences": {}
}