{
  "_format": "hh-sol-artifact-1",
  "contractName": "MetaHackerMotorFactory",
  "sourceName": "contracts/MetaHackerMotorFactory.sol",
  "abi": [
    {
      "inputs": [
        {
          "internalType": "address",
          "name": "_metaHackerEngine",
          "type": "address"
        },
        {
          "internalType": "address",
          "name": "_metahackermotherbase",
          "type": "address"
        },
        {
          "internalType": "address",
          "name": "_metahackermetadata",
          "type": "address"
        }
      ],
      "stateMutability": "nonpayable",
      "type": "constructor"
    },
    {
      "inputs": [
        {
          "internalType": "enum IMetaHackerDNA.Generation",
          "name": "generation",
          "type": "uint8"
        },
        {
          "internalType": "uint256",
          "name": "tokenId",
          "type": "uint256"
        },
        {
          "internalType": "string",
          "name": "_txOfDataURL",
          "type": "string"
        }
      ],
      "name": "metahackerz",
      "outputs": [
        {
          "components": [
            {
              "internalType": "uint256",
              "name": "tokenId",
              "type": "uint256"
            },
            {
              "internalType": "uint256",
              "name": "traithash",
              "type": "uint256"
            },
            {
              "internalType": "uint8",
              "name": "generation",
              "type": "uint8"
            },
            {
              "internalType": "uint8",
              "name": "ranking",
              "type": "uint8"
            },
            {
              "internalType": "enum IMetaHackerDNA.Gender",
              "name": "gender",
              "type": "uint8"
            },
            {
              "internalType": "uint8",
              "name": "boosts",
              "type": "uint8"
            },
            {
              "components": [
                {
                  "internalType": "uint256",
                  "name": "bravery",
                  "type": "uint256"
                },
                {
                  "internalType": "uint256",
                  "name": "humor",
                  "type": "uint256"
                },
                {
                  "internalType": "uint256",
                  "name": "imagination",
                  "type": "uint256"
                },
                {
                  "internalType": "uint256",
                  "name": "intelligence",
                  "type": "uint256"
                },
                {
                  "internalType": "uint256",
                  "name": "leadership",
                  "type": "uint256"
                },
                {
                  "internalType": "uint256",
                  "name": "metaversal",
                  "type": "uint256"
                },
                {
                  "internalType": "uint256",
                  "name": "pressureResistance",
                  "type": "uint256"
                },
                {
                  "internalType": "uint256",
                  "name": "social",
                  "type": "uint256"
                },
                {
                  "internalType": "uint256",
                  "name": "teamworking",
                  "type": "uint256"
                },
                {
                  "internalType": "uint256",
                  "name": "technological",
                  "type": "uint256"
                }
              ],
              "internalType": "struct IMetaHackerDNA.Skills",
              "name": "skills",
              "type": "tuple"
            },
            {
              "internalType": "string",
              "name": "dataURLhash",
              "type": "string"
            }
          ],
          "internalType": "struct IMetaHackerDNA.MetaHacker",
          "name": "metahackers",
          "type": "tuple"
        }
      ],
      "stateMutability": "view",
      "type": "function"
    },
    {
      "inputs": [
        {
          "internalType": "string",
          "name": "svg",
          "type": "string"
        }
      ],
      "name": "svgToImageURI",
      "outputs": [
        {
          "internalType": "string",
          "name": "prefixcode",
          "type": "string"
        }
      ],
      "stateMutability": "pure",
      "type": "function"
    },
    {
      "inputs": [
        {
          "internalType": "string",
          "name": "imageURI",
          "type": "string"
        },
        {
          "internalType": "string",
          "name": "attributeURI",
          "type": "string"
        }
      ],
      "name": "toTokenURI",
      "outputs": [
        {
          "internalType": "string",
          "name": "",
          "type": "string"
        }
      ],
      "stateMutability": "pure",
      "type": "function"
    }
  ],
  "bytecode": "0x60806040523480156200001157600080fd5b50604051620018c0380380620018c0833981810160405281019062000037919062000119565b82600160006101000a81548173ffffffffffffffffffffffffffffffffffffffff021916908373ffffffffffffffffffffffffffffffffffffffff160217905550806000806101000a81548173ffffffffffffffffffffffffffffffffffffffff021916908373ffffffffffffffffffffffffffffffffffffffff16021790555081600260006101000a81548173ffffffffffffffffffffffffffffffffffffffff021916908373ffffffffffffffffffffffffffffffffffffffff160217905550505050620001c8565b6000815190506200011381620001ae565b92915050565b600080600060608486031215620001355762000134620001a9565b5b6000620001458682870162000102565b9350506020620001588682870162000102565b92505060406200016b8682870162000102565b9150509250925092565b6000620001828262000189565b9050919050565b600073ffffffffffffffffffffffffffffffffffffffff82169050919050565b600080fd5b620001b98162000175565b8114620001c557600080fd5b50565b6116e880620001d86000396000f3fe608060405234801561001057600080fd5b50600436106100415760003560e01c806330d871c61461004657806377505cf114610076578063c0324d98146100a6575b600080fd5b610060600480360381019061005b9190610af8565b6100d6565b60405161006d91906110c0565b60405180910390f35b610090600480360381019061008b9190610b41565b610169565b60405161009d91906110c0565b60405180910390f35b6100c060048036038101906100bb9190610a89565b6101e1565b6040516100cd91906110e2565b60405180910390f35b606060006040518060400160405280601a81526020017f646174613a696d6167652f7376672b786d6c3b6261736536342c0000000000008152509050600061013c846040516020016101289190610f8d565b6040516020818303038152906040526102c5565b90508181604051602001610151929190610fa4565b60405160208183030381529060405292505050919050565b606060008284604051602001610180929190610fc8565b60405160208183030381529060405290506101b9816040516020016101a59190610f8d565b6040516020818303038152906040526102c5565b6040516020016101c99190611023565b60405160208183030381529060405291505092915050565b6101e96107d4565b828160000181815250506101fd848461043e565b816020018181525050836004811115610219576102186113c0565b5b816040019060ff16908160ff168152505061023484846104f5565b816060019060ff16908160ff168152505061025284600360006105ac565b81608001906002811115610269576102686113c0565b5b9081600281111561027d5761027c6113c0565b5b8152505061029361028e85856104f5565b610666565b8160a0019060ff16908160ff16815250506102ad84610719565b8160c00181905250818160e001819052509392505050565b60606000825114156102e857604051806020016040528060008152509050610439565b6000604051806060016040528060408152602001611673604091399050600060036002855161031791906111ad565b6103219190611203565b600461032d9190611234565b9050600060208261033e91906111ad565b67ffffffffffffffff811115610357576103566113ef565b5b6040519080825280601f01601f1916602001820160405280156103895781602001600182028036833780820191505090505b509050818152600183018586518101602084015b818310156103f8576003830192508251603f8160121c168501518253600182019150603f81600c1c168501518253600182019150603f8160061c168501518253600182019150603f811685015182536001820191505061039d565b60038951066001811461041257600281146104225761042d565b613d3d60f01b600283035261042d565b603d60f81b60018303525b50505050508093505050505b919050565b6000600160009054906101000a900473ffffffffffffffffffffffffffffffffffffffff1673ffffffffffffffffffffffffffffffffffffffff1663a60fde1084846040518363ffffffff1660e01b815260040161049d929190611060565b60206040518083038186803b1580156104b557600080fd5b505afa1580156104c9573d6000803e3d6000fd5b505050506040513d601f19601f820116820180604052508101906104ed9190610be7565b905092915050565b6000600160009054906101000a900473ffffffffffffffffffffffffffffffffffffffff1673ffffffffffffffffffffffffffffffffffffffff16631f76fcb784846040518363ffffffff1660e01b8152600401610554929190611060565b60206040518083038186803b15801561056c57600080fd5b505afa158015610580573d6000803e3d6000fd5b505050506040513d601f19601f820116820180604052508101906105a49190610c14565b905092915050565b6000600260009054906101000a900473ffffffffffffffffffffffffffffffffffffffff1673ffffffffffffffffffffffffffffffffffffffff1663ca313e588585856040518463ffffffff1660e01b815260040161060d93929190611089565b60206040518083038186803b15801561062557600080fd5b505afa158015610639573d6000803e3d6000fd5b505050506040513d601f19601f8201168201806040525081019061065d9190610a5c565b90509392505050565b60008060009054906101000a900473ffffffffffffffffffffffffffffffffffffffff1673ffffffffffffffffffffffffffffffffffffffff16630a4a3c9f836040518263ffffffff1660e01b81526004016106c29190611104565b60206040518083038186803b1580156106da57600080fd5b505afa1580156106ee573d6000803e3d6000fd5b505050506040513d601f19601f820116820180604052508101906107129190610c14565b9050919050565b61072161083a565b600260009054906101000a900473ffffffffffffffffffffffffffffffffffffffff1673ffffffffffffffffffffffffffffffffffffffff16639e11dda9836040518263ffffffff1660e01b815260040161077c9190611045565b6101406040518083038186803b15801561079557600080fd5b505afa1580156107a9573d6000803e3d6000fd5b505050506040513d601f19601f820116820180604052508101906107cd9190610bb9565b9050919050565b6040518061010001604052806000815260200160008152602001600060ff168152602001600060ff16815260200160006002811115610816576108156113c0565b5b8152602001600060ff16815260200161082d61083a565b8152602001606081525090565b604051806101400160405280600081526020016000815260200160008152602001600081526020016000815260200160008152602001600081526020016000815260200160008152602001600081525090565b60006108a061089b84611144565b61111f565b9050828152602081018484840111156108bc576108bb611428565b5b6108c78482856112ef565b509392505050565b6000815190506108de81611624565b92915050565b6000813590506108f381611634565b92915050565b600082601f83011261090e5761090d61141e565b5b813561091e84826020860161088d565b91505092915050565b6000610140828403121561093e5761093d611423565b5b61094961014061111f565b9050600061095984828501610a32565b600083015250602061096d84828501610a32565b602083015250604061098184828501610a32565b604083015250606061099584828501610a32565b60608301525060806109a984828501610a32565b60808301525060a06109bd84828501610a32565b60a08301525060c06109d184828501610a32565b60c08301525060e06109e584828501610a32565b60e0830152506101006109fa84828501610a32565b61010083015250610120610a1084828501610a32565b6101208301525092915050565b600081359050610a2c81611644565b92915050565b600081519050610a4181611644565b92915050565b600081519050610a568161165b565b92915050565b600060208284031215610a7257610a71611432565b5b6000610a80848285016108cf565b91505092915050565b600080600060608486031215610aa257610aa1611432565b5b6000610ab0868287016108e4565b9350506020610ac186828701610a1d565b925050604084013567ffffffffffffffff811115610ae257610ae161142d565b5b610aee868287016108f9565b9150509250925092565b600060208284031215610b0e57610b0d611432565b5b600082013567ffffffffffffffff811115610b2c57610b2b61142d565b5b610b38848285016108f9565b91505092915050565b60008060408385031215610b5857610b57611432565b5b600083013567ffffffffffffffff811115610b7657610b7561142d565b5b610b82858286016108f9565b925050602083013567ffffffffffffffff811115610ba357610ba261142d565b5b610baf858286016108f9565b9150509250929050565b60006101408284031215610bd057610bcf611432565b5b6000610bde84828501610927565b91505092915050565b600060208284031215610bfd57610bfc611432565b5b6000610c0b84828501610a32565b91505092915050565b600060208284031215610c2a57610c29611432565b5b6000610c3884828501610a47565b91505092915050565b610c4a816112cb565b82525050565b610c59816112dd565b82525050565b6000610c6a82611175565b610c748185611180565b9350610c848185602086016112fe565b610c8d81611437565b840191505092915050565b6000610ca382611175565b610cad8185611191565b9350610cbd8185602086016112fe565b610cc681611437565b840191505092915050565b6000610cdc82611175565b610ce681856111a2565b9350610cf68185602086016112fe565b80840191505092915050565b6000610d0f6085836111a2565b9150610d1a82611448565b608582019050919050565b6000610d32600e836111a2565b9150610d3d82611509565b600e82019050919050565b6000610d556002836111a2565b9150610d6082611532565b600282019050919050565b6000610d78601d836111a2565b9150610d838261155b565b601d82019050919050565b6000610d9b600a836111a2565b9150610da682611584565b600a82019050919050565b6000610dbe6021836111a2565b9150610dc9826115ad565b602182019050919050565b600061022083016000830151610ded6000860182610f51565b506020830151610e006020860182610f51565b506040830151610e136040860182610f6f565b506060830151610e266060860182610f6f565b506080830151610e396080860182610c41565b5060a0830151610e4c60a0860182610f6f565b5060c0830151610e5f60c0860182610e85565b5060e0830151848203610200860152610e788282610c5f565b9150508091505092915050565b61014082016000820151610e9c6000850182610f51565b506020820151610eaf6020850182610f51565b506040820151610ec26040850182610f51565b506060820151610ed56060850182610f51565b506080820151610ee86080850182610f51565b5060a0820151610efb60a0850182610f51565b5060c0820151610f0e60c0850182610f51565b5060e0820151610f2160e0850182610f51565b50610100820151610f36610100850182610f51565b50610120820151610f4b610120850182610f51565b50505050565b610f5a816112b4565b82525050565b610f69816112b4565b82525050565b610f78816112be565b82525050565b610f87816112be565b82525050565b6000610f998284610cd1565b915081905092915050565b6000610fb08285610cd1565b9150610fbc8284610cd1565b91508190509392505050565b6000610fd382610d02565b9150610fde82610db1565b9150610fe982610d8e565b9150610ff58285610cd1565b915061100082610d25565b915061100c8284610cd1565b915061101782610d48565b91508190509392505050565b600061102e82610d6b565b915061103a8284610cd1565b915081905092915050565b600060208201905061105a6000830184610c50565b92915050565b60006040820190506110756000830185610c50565b6110826020830184610f60565b9392505050565b600060608201905061109e6000830186610c50565b6110ab6020830185610f60565b6110b86040830184610f60565b949350505050565b600060208201905081810360008301526110da8184610c98565b905092915050565b600060208201905081810360008301526110fc8184610dd4565b905092915050565b60006020820190506111196000830184610f7e565b92915050565b600061112961113a565b90506111358282611331565b919050565b6000604051905090565b600067ffffffffffffffff82111561115f5761115e6113ef565b5b61116882611437565b9050602081019050919050565b600081519050919050565b600082825260208201905092915050565b600082825260208201905092915050565b600081905092915050565b60006111b8826112b4565b91506111c3836112b4565b9250827fffffffffffffffffffffffffffffffffffffffffffffffffffffffffffffffff038211156111f8576111f7611362565b5b828201905092915050565b600061120e826112b4565b9150611219836112b4565b92508261122957611228611391565b5b828204905092915050565b600061123f826112b4565b915061124a836112b4565b9250817fffffffffffffffffffffffffffffffffffffffffffffffffffffffffffffffff048311821515161561128357611282611362565b5b828202905092915050565b600081905061129c826115fc565b919050565b60008190506112af82611610565b919050565b6000819050919050565b600060ff82169050919050565b60006112d68261128e565b9050919050565b60006112e8826112a1565b9050919050565b82818337600083830152505050565b60005b8381101561131c578082015181840152602081019050611301565b8381111561132b576000848401525b50505050565b61133a82611437565b810181811067ffffffffffffffff82111715611359576113586113ef565b5b80604052505050565b7f4e487b7100000000000000000000000000000000000000000000000000000000600052601160045260246000fd5b7f4e487b7100000000000000000000000000000000000000000000000000000000600052601260045260246000fd5b7f4e487b7100000000000000000000000000000000000000000000000000000000600052602160045260246000fd5b7f4e487b7100000000000000000000000000000000000000000000000000000000600052604160045260246000fd5b600080fd5b600080fd5b600080fd5b600080fd5b600080fd5b6000601f19601f8301169050919050565b7f7b226465736372697074696f6e223a2022556e6971756520736f6c646965722060008201527f63616c6c6564204d6574614861636b657220776869636820706169727320757060208201527f206173207465616d7320746f2077696e206861636b65722067616d652e20496d60408201527f6167657320616e64204d65746164617461206172652031303025206f6e2d636860608201527f61696e222c000000000000000000000000000000000000000000000000000000608082015250565b7f22696d6167655f64617461223a22000000000000000000000000000000000000600082015250565b7f227d000000000000000000000000000000000000000000000000000000000000600082015250565b7f646174613a6170706c69636174696f6e2f6a736f6e3b6261736536342c000000600082015250565b7f226e616d65223a22222c00000000000000000000000000000000000000000000600082015250565b7f2265787465726e616c5f75726c223a20224d6574614861636b65722e2e2e2e2260008201527f2c00000000000000000000000000000000000000000000000000000000000000602082015250565b6003811061160d5761160c6113c0565b5b50565b60058110611621576116206113c0565b5b50565b6003811061163157600080fd5b50565b6005811061164157600080fd5b50565b61164d816112b4565b811461165857600080fd5b50565b611664816112be565b811461166f57600080fd5b5056fe4142434445464748494a4b4c4d4e4f505152535455565758595a6162636465666768696a6b6c6d6e6f707172737475767778797a303132333435363738392b2fa2646970667358221220097d7e2d43df314d7cb9fe59d7bca67f3f1cf9ddaa6a4ccee3987cc3f1d4bdb664736f6c63430008070033",
  "linkReferences": {},
  "deployedLinkReferences": {}
}