{
  "_format": "hh-sol-artifact-1",
  "contractName": "MetaHackerMotherBase",
  "sourceName": "contracts/MetaHackerMotherBase.sol",
  "abi": [
    {
      "inputs": [],
      "stateMutability": "nonpayable",
      "type": "constructor"
    },
    {
      "anonymous": false,
      "inputs": [
        {
          "indexed": true,
          "internalType": "bytes32",
          "name": "role",
          "type": "bytes32"
        },
        {
          "indexed": true,
          "internalType": "bytes32",
          "name": "previousAdminRole",
          "type": "bytes32"
        },
        {
          "indexed": true,
          "internalType": "bytes32",
          "name": "newAdminRole",
          "type": "bytes32"
        }
      ],
      "name": "RoleAdminChanged",
      "type": "event"
    },
    {
      "anonymous": false,
      "inputs": [
        {
          "indexed": true,
          "internalType": "bytes32",
          "name": "role",
          "type": "bytes32"
        },
        {
          "indexed": true,
          "internalType": "address",
          "name": "account",
          "type": "address"
        },
        {
          "indexed": true,
          "internalType": "address",
          "name": "sender",
          "type": "address"
        }
      ],
      "name": "RoleGranted",
      "type": "event"
    },
    {
      "anonymous": false,
      "inputs": [
        {
          "indexed": true,
          "internalType": "bytes32",
          "name": "role",
          "type": "bytes32"
        },
        {
          "indexed": true,
          "internalType": "address",
          "name": "account",
          "type": "address"
        },
        {
          "indexed": true,
          "internalType": "address",
          "name": "sender",
          "type": "address"
        }
      ],
      "name": "RoleRevoked",
      "type": "event"
    },
    {
      "inputs": [],
      "name": "DEFAULT_ADMIN_ROLE",
      "outputs": [
        {
          "internalType": "bytes32",
          "name": "",
          "type": "bytes32"
        }
      ],
      "stateMutability": "view",
      "type": "function"
    },
    {
      "inputs": [],
      "name": "STUDIO_ROLE",
      "outputs": [
        {
          "internalType": "bytes32",
          "name": "",
          "type": "bytes32"
        }
      ],
      "stateMutability": "view",
      "type": "function"
    },
    {
      "inputs": [],
      "name": "checkStatusOfGen",
      "outputs": [
        {
          "internalType": "enum IMetaHackerDNA.Generation",
          "name": "",
          "type": "uint8"
        }
      ],
      "stateMutability": "view",
      "type": "function"
    },
    {
      "inputs": [
        {
          "internalType": "bytes32",
          "name": "role",
          "type": "bytes32"
        }
      ],
      "name": "getRoleAdmin",
      "outputs": [
        {
          "internalType": "bytes32",
          "name": "",
          "type": "bytes32"
        }
      ],
      "stateMutability": "view",
      "type": "function"
    },
    {
      "inputs": [
        {
          "internalType": "enum IMetaHackerDNA.Generation",
          "name": "_generation",
          "type": "uint8"
        }
      ],
      "name": "getSkillz",
      "outputs": [
        {
          "components": [
            {
              "internalType": "uint256",
              "name": "bravery",
              "type": "uint256"
            },
            {
              "internalType": "uint256",
              "name": "humor",
              "type": "uint256"
            },
            {
              "internalType": "uint256",
              "name": "imagination",
              "type": "uint256"
            },
            {
              "internalType": "uint256",
              "name": "intelligence",
              "type": "uint256"
            },
            {
              "internalType": "uint256",
              "name": "leadership",
              "type": "uint256"
            },
            {
              "internalType": "uint256",
              "name": "metaversal",
              "type": "uint256"
            },
            {
              "internalType": "uint256",
              "name": "pressureResistance",
              "type": "uint256"
            },
            {
              "internalType": "uint256",
              "name": "social",
              "type": "uint256"
            },
            {
              "internalType": "uint256",
              "name": "teamworking",
              "type": "uint256"
            },
            {
              "internalType": "uint256",
              "name": "technological",
              "type": "uint256"
            }
          ],
          "internalType": "struct IMetaHackerDNA.Skills",
          "name": "",
          "type": "tuple"
        }
      ],
      "stateMutability": "view",
      "type": "function"
    },
    {
      "inputs": [
        {
          "internalType": "enum IMetaHackerDNA.Generation",
          "name": "_generation",
          "type": "uint8"
        },
        {
          "internalType": "uint256",
          "name": "_gene",
          "type": "uint256"
        },
        {
          "internalType": "uint256",
          "name": "_traitId",
          "type": "uint256"
        }
      ],
      "name": "getTraitgender",
      "outputs": [
        {
          "internalType": "enum IMetaHackerDNA.Gender",
          "name": "",
          "type": "uint8"
        }
      ],
      "stateMutability": "view",
      "type": "function"
    },
    {
      "inputs": [
        {
          "internalType": "enum IMetaHackerDNA.Generation",
          "name": "_generation",
          "type": "uint8"
        },
        {
          "internalType": "uint256",
          "name": "_gene",
          "type": "uint256"
        },
        {
          "internalType": "uint256",
          "name": "_traitId",
          "type": "uint256"
        }
      ],
      "name": "getTraitname",
      "outputs": [
        {
          "internalType": "string",
          "name": "",
          "type": "string"
        }
      ],
      "stateMutability": "view",
      "type": "function"
    },
    {
      "inputs": [
        {
          "internalType": "enum IMetaHackerDNA.Generation",
          "name": "_generation",
          "type": "uint8"
        },
        {
          "internalType": "uint256",
          "name": "_gene",
          "type": "uint256"
        },
        {
          "internalType": "uint256",
          "name": "_traitId",
          "type": "uint256"
        }
      ],
      "name": "getTraitsvg",
      "outputs": [
        {
          "internalType": "string",
          "name": "",
          "type": "string"
        }
      ],
      "stateMutability": "view",
      "type": "function"
    },
    {
      "inputs": [
        {
          "internalType": "bytes32",
          "name": "role",
          "type": "bytes32"
        },
        {
          "internalType": "address",
          "name": "account",
          "type": "address"
        }
      ],
      "name": "grantRole",
      "outputs": [],
      "stateMutability": "nonpayable",
      "type": "function"
    },
    {
      "inputs": [
        {
          "internalType": "bytes32",
          "name": "role",
          "type": "bytes32"
        },
        {
          "internalType": "address",
          "name": "account",
          "type": "address"
        }
      ],
      "name": "hasRole",
      "outputs": [
        {
          "internalType": "bool",
          "name": "",
          "type": "bool"
        }
      ],
      "stateMutability": "view",
      "type": "function"
    },
    {
      "inputs": [
        {
          "internalType": "bytes32",
          "name": "role",
          "type": "bytes32"
        },
        {
          "internalType": "address",
          "name": "account",
          "type": "address"
        }
      ],
      "name": "renounceRole",
      "outputs": [],
      "stateMutability": "nonpayable",
      "type": "function"
    },
    {
      "inputs": [
        {
          "internalType": "bytes32",
          "name": "role",
          "type": "bytes32"
        },
        {
          "internalType": "address",
          "name": "account",
          "type": "address"
        }
      ],
      "name": "revokeRole",
      "outputs": [],
      "stateMutability": "nonpayable",
      "type": "function"
    },
    {
      "inputs": [
        {
          "internalType": "bytes4",
          "name": "interfaceId",
          "type": "bytes4"
        }
      ],
      "name": "supportsInterface",
      "outputs": [
        {
          "internalType": "bool",
          "name": "",
          "type": "bool"
        }
      ],
      "stateMutability": "view",
      "type": "function"
    },
    {
      "inputs": [
        {
          "internalType": "enum IMetaHackerDNA.Generation",
          "name": "_generation",
          "type": "uint8"
        },
        {
          "internalType": "uint256[]",
          "name": "eachSkill",
          "type": "uint256[]"
        }
      ],
      "name": "uploadSkills",
      "outputs": [],
      "stateMutability": "nonpayable",
      "type": "function"
    },
    {
      "inputs": [
        {
          "internalType": "enum IMetaHackerDNA.Generation",
          "name": "_generation",
          "type": "uint8"
        },
        {
          "internalType": "uint256",
          "name": "gene",
          "type": "uint256"
        },
        {
          "internalType": "uint256[]",
          "name": "traitvarId",
          "type": "uint256[]"
        },
        {
          "components": [
            {
              "internalType": "enum IMetaHackerDNA.Generation",
              "name": "generation",
              "type": "uint8"
            },
            {
              "internalType": "enum IMetaHackerDNA.Gender",
              "name": "gender",
              "type": "uint8"
            },
            {
              "internalType": "string",
              "name": "gene",
              "type": "string"
            },
            {
              "internalType": "uint256",
              "name": "variation",
              "type": "uint256"
            },
            {
              "internalType": "string",
              "name": "name",
              "type": "string"
            },
            {
              "internalType": "string",
              "name": "svg",
              "type": "string"
            }
          ],
          "internalType": "struct IMetaHackerDNA.Traits[]",
          "name": "_traits",
          "type": "tuple[]"
        }
      ],
      "name": "uploadTraits",
      "outputs": [],
      "stateMutability": "nonpayable",
      "type": "function"
    }
  ],
  "bytecode": "0x60806040523480156200001157600080fd5b506200002a6000801b6000801b620000ac60201b60201c565b6200005f7f82f98400b17c944fd3434674e4be9f75a17af29b97b79a097408cec913538dd26000801b620000ac60201b60201c565b620000746000801b336200010f60201b60201c565b620000a67f82f98400b17c944fd3434674e4be9f75a17af29b97b79a097408cec913538dd2336200010f60201b60201c565b620002a7565b6000620000bf836200012560201b60201c565b905081600080858152602001908152602001600020600101819055508181847fbd79b86ffe0ab8e8776151514217cd7cacd52c909f66475c3af44e129f0b00ff60405160405180910390a4505050565b6200012182826200014460201b60201c565b5050565b6000806000838152602001908152602001600020600101549050919050565b6200015682826200023560201b60201c565b6200023157600160008084815260200190815260200160002060000160008373ffffffffffffffffffffffffffffffffffffffff1673ffffffffffffffffffffffffffffffffffffffff16815260200190815260200160002060006101000a81548160ff021916908315150217905550620001d66200029f60201b60201c565b73ffffffffffffffffffffffffffffffffffffffff168173ffffffffffffffffffffffffffffffffffffffff16837f2f8788117e7eff1d82e926ec794901d17c78024a50270940304540a733656f0d60405160405180910390a45b5050565b600080600084815260200190815260200160002060000160008373ffffffffffffffffffffffffffffffffffffffff1673ffffffffffffffffffffffffffffffffffffffff16815260200190815260200160002060009054906101000a900460ff16905092915050565b600033905090565b6121f380620002b76000396000f3fe608060405234801561001057600080fd5b50600436106100f55760003560e01c806391d1485411610097578063ca313e5811610066578063ca313e58146102aa578063d547741f146102da578063ed8693e8146102f6578063f3bd07e314610314576100f5565b806391d14854146101fc5780639e11dda91461022c578063a217fddf1461025c578063c04a25c71461027a576100f5565b806331c3caa0116100d357806331c3caa01461017657806336568abe146101a65780634303dfa5146101c2578063492c14fa146101de576100f5565b806301ffc9a7146100fa578063248a9ca31461012a5780632f2ff15d1461015a575b600080fd5b610114600480360381019061010f91906116ab565b610330565b6040516101219190611af6565b60405180910390f35b610144600480360381019061013f919061163e565b6103aa565b6040516101519190611b11565b60405180910390f35b610174600480360381019061016f919061166b565b6103c9565b005b610190600480360381019061018b9190611839565b6103f2565b60405161019d9190611b62565b60405180910390f35b6101c060048036038101906101bb919061166b565b6104e2565b005b6101dc60048036038101906101d79190611792565b610565565b005b6101e66109b1565b6040516101f39190611b47565b60405180910390f35b6102166004803603810190610211919061166b565b6109c8565b6040516102239190611af6565b60405180910390f35b61024660048036038101906102419190611705565b610a32565b6040516102539190611be4565b60405180910390f35b610264610ae8565b6040516102719190611b11565b60405180910390f35b610294600480360381019061028f9190611839565b610aef565b6040516102a19190611b62565b60405180910390f35b6102c460048036038101906102bf9190611839565b610bdf565b6040516102d19190611b2c565b60405180910390f35b6102f460048036038101906102ef919061166b565b610c54565b005b6102fe610c7d565b60405161030b9190611b11565b60405180910390f35b61032e60048036038101906103299190611732565b610ca1565b005b60007f7965db0b000000000000000000000000000000000000000000000000000000007bffffffffffffffffffffffffffffffffffffffffffffffffffffffff1916827bffffffffffffffffffffffffffffffffffffffffffffffffffffffff191614806103a357506103a282610f12565b5b9050919050565b6000806000838152602001908152602001600020600101549050919050565b6103d2826103aa565b6103e3816103de610f7c565b610f84565b6103ed8383611021565b505050565b6060600c600085600481111561040b5761040a611f31565b5b600481111561041d5761041c611f31565b5b815260200190815260200160002060008481526020019081526020016000206000838152602001908152602001600020600301805461045b90611e87565b80601f016020809104026020016040519081016040528092919081815260200182805461048790611e87565b80156104d45780601f106104a9576101008083540402835291602001916104d4565b820191906000526020600020905b8154815290600101906020018083116104b757829003601f168201915b505050505090509392505050565b6104ea610f7c565b73ffffffffffffffffffffffffffffffffffffffff168173ffffffffffffffffffffffffffffffffffffffff1614610557576040517f08c379a000000000000000000000000000000000000000000000000000000000815260040161054e90611bc4565b60405180910390fd5b6105618282611101565b5050565b7f82f98400b17c944fd3434674e4be9f75a17af29b97b79a097408cec913538dd261059781610592610f7c565b610f84565b8282905085859050146105df576040517f08c379a00000000000000000000000000000000000000000000000000000000081526004016105d690611ba4565b60405180910390fd5b86600160006101000a81548160ff0219169083600481111561060457610603611f31565b5b021790555060005b838390508110156109a7576040518060c0016040528085858481811061063557610634611f8f565b5b90506020028101906106479190611c63565b60000160208101906106599190611705565b600481111561066b5761066a611f31565b5b815260200185858481811061068357610682611f8f565b5b90506020028101906106959190611c63565b60200160208101906106a791906116d8565b60028111156106b9576106b8611f31565b5b81526020018585848181106106d1576106d0611f8f565b5b90506020028101906106e39190611c63565b80604001906106f29190611c00565b8080601f016020809104026020016040519081016040528093929190818152602001838380828437600081840152601f19601f82011690508083019250505050505050815260200185858481811061074d5761074c611f8f565b5b905060200281019061075f9190611c63565b60600135815260200185858481811061077b5761077a611f8f565b5b905060200281019061078d9190611c63565b806080019061079c9190611c00565b8080601f016020809104026020016040519081016040528093929190818152602001838380828437600081840152601f19601f8201169050808301925050505050505081526020018585848181106107f7576107f6611f8f565b5b90506020028101906108099190611c63565b8060a001906108189190611c00565b8080601f016020809104026020016040519081016040528093929190818152602001838380828437600081840152601f19601f82011690508083019250505050505050815250600c60008a600481111561087557610874611f31565b5b600481111561088757610886611f31565b5b8152602001908152602001600020600089815260200190815260200160002060008888858181106108bb576108ba611f8f565b5b90506020020135815260200190815260200160002060008201518160000160006101000a81548160ff021916908360048111156108fb576108fa611f31565b5b021790555060208201518160000160016101000a81548160ff0219169083600281111561092b5761092a611f31565b5b0217905550604082015181600101908051906020019061094c92919061141e565b5060608201518160020155608082015181600301908051906020019061097392919061141e565b5060a082015181600401908051906020019061099092919061141e565b50905050808061099f90611eb9565b91505061060c565b5050505050505050565b6000600160009054906101000a900460ff16905090565b600080600084815260200190815260200160002060000160008373ffffffffffffffffffffffffffffffffffffffff1673ffffffffffffffffffffffffffffffffffffffff16815260200190815260200160002060009054906101000a900460ff16905092915050565b610a3a6114a4565b600d6000836004811115610a5157610a50611f31565b5b6004811115610a6357610a62611f31565b5b8152602001908152602001600020604051806101400160405290816000820154815260200160018201548152602001600282015481526020016003820154815260200160048201548152602001600582015481526020016006820154815260200160078201548152602001600882015481526020016009820154815250509050919050565b6000801b81565b6060600c6000856004811115610b0857610b07611f31565b5b6004811115610b1a57610b19611f31565b5b8152602001908152602001600020600084815260200190815260200160002060008381526020019081526020016000206004018054610b5890611e87565b80601f0160208091040260200160405190810160405280929190818152602001828054610b8490611e87565b8015610bd15780601f10610ba657610100808354040283529160200191610bd1565b820191906000526020600020905b815481529060010190602001808311610bb457829003601f168201915b505050505090509392505050565b6000600c6000856004811115610bf857610bf7611f31565b5b6004811115610c0a57610c09611f31565b5b81526020019081526020016000206000848152602001908152602001600020600083815260200190815260200160002060000160019054906101000a900460ff1690509392505050565b610c5d826103aa565b610c6e81610c69610f7c565b610f84565b610c788383611101565b505050565b7f82f98400b17c944fd3434674e4be9f75a17af29b97b79a097408cec913538dd281565b7f82f98400b17c944fd3434674e4be9f75a17af29b97b79a097408cec913538dd2610cd381610cce610f7c565b610f84565b60405180610140016040528084846000818110610cf357610cf2611f8f565b5b905060200201356002600001819055815260200184846001818110610d1b57610d1a611f8f565b5b905060200201356002600101819055815260200184846002818110610d4357610d42611f8f565b5b9050602002013560028001819055815260200184846003818110610d6a57610d69611f8f565b5b905060200201356002600301819055815260200184846004818110610d9257610d91611f8f565b5b905060200201356002600401819055815260200184846005818110610dba57610db9611f8f565b5b905060200201356002600501819055815260200184846006818110610de257610de1611f8f565b5b905060200201356002600601819055815260200184846007818110610e0a57610e09611f8f565b5b905060200201356002600701819055815260200184846008818110610e3257610e31611f8f565b5b905060200201356002600801819055815260200184846009818110610e5a57610e59611f8f565b5b905060200201356002600901819055815250600d6000866004811115610e8357610e82611f31565b5b6004811115610e9557610e94611f31565b5b8152602001908152602001600020600082015181600001556020820151816001015560408201518160020155606082015181600301556080820151816004015560a0820151816005015560c0820151816006015560e082015181600701556101008201518160080155610120820151816009015590505050505050565b60007f01ffc9a7000000000000000000000000000000000000000000000000000000007bffffffffffffffffffffffffffffffffffffffffffffffffffffffff1916827bffffffffffffffffffffffffffffffffffffffffffffffffffffffff1916149050919050565b600033905090565b610f8e82826109c8565b61101d57610fb38173ffffffffffffffffffffffffffffffffffffffff1660146111e2565b610fc18360001c60206111e2565b604051602001610fd2929190611abc565b6040516020818303038152906040526040517f08c379a00000000000000000000000000000000000000000000000000000000081526004016110149190611b62565b60405180910390fd5b5050565b61102b82826109c8565b6110fd57600160008084815260200190815260200160002060000160008373ffffffffffffffffffffffffffffffffffffffff1673ffffffffffffffffffffffffffffffffffffffff16815260200190815260200160002060006101000a81548160ff0219169083151502179055506110a2610f7c565b73ffffffffffffffffffffffffffffffffffffffff168173ffffffffffffffffffffffffffffffffffffffff16837f2f8788117e7eff1d82e926ec794901d17c78024a50270940304540a733656f0d60405160405180910390a45b5050565b61110b82826109c8565b156111de57600080600084815260200190815260200160002060000160008373ffffffffffffffffffffffffffffffffffffffff1673ffffffffffffffffffffffffffffffffffffffff16815260200190815260200160002060006101000a81548160ff021916908315150217905550611183610f7c565b73ffffffffffffffffffffffffffffffffffffffff168173ffffffffffffffffffffffffffffffffffffffff16837ff6391f5c32d9c69d2a47ea670b442974b53935d1edc7fd64eb21e047a839171b60405160405180910390a45b5050565b6060600060028360026111f59190611d08565b6111ff9190611cb2565b67ffffffffffffffff81111561121857611217611fbe565b5b6040519080825280601f01601f19166020018201604052801561124a5781602001600182028036833780820191505090505b5090507f30000000000000000000000000000000000000000000000000000000000000008160008151811061128257611281611f8f565b5b60200101907effffffffffffffffffffffffffffffffffffffffffffffffffffffffffffff1916908160001a9053507f7800000000000000000000000000000000000000000000000000000000000000816001815181106112e6576112e5611f8f565b5b60200101907effffffffffffffffffffffffffffffffffffffffffffffffffffffffffffff1916908160001a905350600060018460026113269190611d08565b6113309190611cb2565b90505b60018111156113d0577f3031323334353637383961626364656600000000000000000000000000000000600f86166010811061137257611371611f8f565b5b1a60f81b82828151811061138957611388611f8f565b5b60200101907effffffffffffffffffffffffffffffffffffffffffffffffffffffffffffff1916908160001a905350600485901c9450806113c990611e5d565b9050611333565b5060008414611414576040517f08c379a000000000000000000000000000000000000000000000000000000000815260040161140b90611b84565b60405180910390fd5b8091505092915050565b82805461142a90611e87565b90600052602060002090601f01602090048101928261144c5760008555611493565b82601f1061146557805160ff1916838001178555611493565b82800160010185558215611493579182015b82811115611492578251825591602001919060010190611477565b5b5090506114a091906114f7565b5090565b604051806101400160405280600081526020016000815260200160008152602001600081526020016000815260200160008152602001600081526020016000815260200160008152602001600081525090565b5b808211156115105760008160009055506001016114f8565b5090565b60008135905061152381612141565b92915050565b60008083601f84011261153f5761153e611ff2565b5b8235905067ffffffffffffffff81111561155c5761155b611fed565b5b60208301915083602082028301111561157857611577612001565b5b9250929050565b60008083601f84011261159557611594611ff2565b5b8235905067ffffffffffffffff8111156115b2576115b1611fed565b5b6020830191508360208202830111156115ce576115cd612001565b5b9250929050565b6000813590506115e481612158565b92915050565b6000813590506115f98161216f565b92915050565b60008135905061160e81612186565b92915050565b60008135905061162381612196565b92915050565b600081359050611638816121a6565b92915050565b60006020828403121561165457611653612010565b5b6000611662848285016115d5565b91505092915050565b6000806040838503121561168257611681612010565b5b6000611690858286016115d5565b92505060206116a185828601611514565b9150509250929050565b6000602082840312156116c1576116c0612010565b5b60006116cf848285016115ea565b91505092915050565b6000602082840312156116ee576116ed612010565b5b60006116fc848285016115ff565b91505092915050565b60006020828403121561171b5761171a612010565b5b600061172984828501611614565b91505092915050565b60008060006040848603121561174b5761174a612010565b5b600061175986828701611614565b935050602084013567ffffffffffffffff81111561177a5761177961200b565b5b6117868682870161157f565b92509250509250925092565b600080600080600080608087890312156117af576117ae612010565b5b60006117bd89828a01611614565b96505060206117ce89828a01611629565b955050604087013567ffffffffffffffff8111156117ef576117ee61200b565b5b6117fb89828a0161157f565b9450945050606087013567ffffffffffffffff81111561181e5761181d61200b565b5b61182a89828a01611529565b92509250509295509295509295565b60008060006060848603121561185257611851612010565b5b600061186086828701611614565b935050602061187186828701611629565b925050604061188286828701611629565b9150509250925092565b61189581611d74565b82525050565b6118a481611d80565b82525050565b6118b381611e06565b82525050565b6118c281611e18565b82525050565b60006118d382611c8b565b6118dd8185611c96565b93506118ed818560208601611e2a565b6118f681612015565b840191505092915050565b600061190c82611c8b565b6119168185611ca7565b9350611926818560208601611e2a565b80840191505092915050565b600061193f602083611c96565b915061194a82612026565b602082019050919050565b6000611962600d83611c96565b915061196d8261204f565b602082019050919050565b6000611985601783611ca7565b915061199082612078565b601782019050919050565b60006119a8601183611ca7565b91506119b3826120a1565b601182019050919050565b60006119cb602f83611c96565b91506119d6826120ca565b604082019050919050565b610140820160008201516119f86000850182611aad565b506020820151611a0b6020850182611aad565b506040820151611a1e6040850182611aad565b506060820151611a316060850182611aad565b506080820151611a446080850182611aad565b5060a0820151611a5760a0850182611aad565b5060c0820151611a6a60c0850182611aad565b5060e0820151611a7d60e0850182611aad565b50610100820151611a92610100850182611aad565b50610120820151611aa7610120850182611aad565b50505050565b611ab681611dfc565b82525050565b6000611ac782611978565b9150611ad38285611901565b9150611ade8261199b565b9150611aea8284611901565b91508190509392505050565b6000602082019050611b0b600083018461188c565b92915050565b6000602082019050611b26600083018461189b565b92915050565b6000602082019050611b4160008301846118aa565b92915050565b6000602082019050611b5c60008301846118b9565b92915050565b60006020820190508181036000830152611b7c81846118c8565b905092915050565b60006020820190508181036000830152611b9d81611932565b9050919050565b60006020820190508181036000830152611bbd81611955565b9050919050565b60006020820190508181036000830152611bdd816119be565b9050919050565b600061014082019050611bfa60008301846119e1565b92915050565b60008083356001602003843603038112611c1d57611c1c611ffc565b5b80840192508235915067ffffffffffffffff821115611c3f57611c3e611ff7565b5b602083019250600182023603831315611c5b57611c5a612006565b5b509250929050565b60008235600160c003833603038112611c7f57611c7e611ffc565b5b80830191505092915050565b600081519050919050565b600082825260208201905092915050565b600081905092915050565b6000611cbd82611dfc565b9150611cc883611dfc565b9250827fffffffffffffffffffffffffffffffffffffffffffffffffffffffffffffffff03821115611cfd57611cfc611f02565b5b828201905092915050565b6000611d1382611dfc565b9150611d1e83611dfc565b9250817fffffffffffffffffffffffffffffffffffffffffffffffffffffffffffffffff0483118215151615611d5757611d56611f02565b5b828202905092915050565b6000611d6d82611ddc565b9050919050565b60008115159050919050565b6000819050919050565b60007fffffffff0000000000000000000000000000000000000000000000000000000082169050919050565b6000819050611dc482612119565b919050565b6000819050611dd78261212d565b919050565b600073ffffffffffffffffffffffffffffffffffffffff82169050919050565b6000819050919050565b6000611e1182611db6565b9050919050565b6000611e2382611dc9565b9050919050565b60005b83811015611e48578082015181840152602081019050611e2d565b83811115611e57576000848401525b50505050565b6000611e6882611dfc565b91506000821415611e7c57611e7b611f02565b5b600182039050919050565b60006002820490506001821680611e9f57607f821691505b60208210811415611eb357611eb2611f60565b5b50919050565b6000611ec482611dfc565b91507fffffffffffffffffffffffffffffffffffffffffffffffffffffffffffffffff821415611ef757611ef6611f02565b5b600182019050919050565b7f4e487b7100000000000000000000000000000000000000000000000000000000600052601160045260246000fd5b7f4e487b7100000000000000000000000000000000000000000000000000000000600052602160045260246000fd5b7f4e487b7100000000000000000000000000000000000000000000000000000000600052602260045260246000fd5b7f4e487b7100000000000000000000000000000000000000000000000000000000600052603260045260246000fd5b7f4e487b7100000000000000000000000000000000000000000000000000000000600052604160045260246000fd5b600080fd5b600080fd5b600080fd5b600080fd5b600080fd5b600080fd5b600080fd5b600080fd5b6000601f19601f8301169050919050565b7f537472696e67733a20686578206c656e67746820696e73756666696369656e74600082015250565b7f4d69736d617420696e7075747300000000000000000000000000000000000000600082015250565b7f416363657373436f6e74726f6c3a206163636f756e7420000000000000000000600082015250565b7f206973206d697373696e6720726f6c6520000000000000000000000000000000600082015250565b7f416363657373436f6e74726f6c3a2063616e206f6e6c792072656e6f756e636560008201527f20726f6c657320666f722073656c660000000000000000000000000000000000602082015250565b6003811061212a57612129611f31565b5b50565b6005811061213e5761213d611f31565b5b50565b61214a81611d62565b811461215557600080fd5b50565b61216181611d80565b811461216c57600080fd5b50565b61217881611d8a565b811461218357600080fd5b50565b6003811061219357600080fd5b50565b600581106121a357600080fd5b50565b6121af81611dfc565b81146121ba57600080fd5b5056fea26469706673582212206ed6c39e6386f27d341d3a0dd491b736e389e64e9f8cbc9eda5add1f914d860a64736f6c63430008070033",
  "linkReferences": {},
  "deployedLinkReferences": {}
}