{
  "_format": "hh-sol-artifact-1",
  "contractName": "MetaHackerEngine",
  "sourceName": "contracts/MetaHackerEngine.sol",
  "abi": [
    {
      "inputs": [
        {
          "internalType": "contract IMetaHackerMotherBase",
          "name": "_metahackermotherbase",
          "type": "address"
        }
      ],
      "stateMutability": "nonpayable",
      "type": "constructor"
    },
    {
      "anonymous": false,
      "inputs": [
        {
          "indexed": true,
          "internalType": "bytes32",
          "name": "role",
          "type": "bytes32"
        },
        {
          "indexed": true,
          "internalType": "bytes32",
          "name": "previousAdminRole",
          "type": "bytes32"
        },
        {
          "indexed": true,
          "internalType": "bytes32",
          "name": "newAdminRole",
          "type": "bytes32"
        }
      ],
      "name": "RoleAdminChanged",
      "type": "event"
    },
    {
      "anonymous": false,
      "inputs": [
        {
          "indexed": true,
          "internalType": "bytes32",
          "name": "role",
          "type": "bytes32"
        },
        {
          "indexed": true,
          "internalType": "address",
          "name": "account",
          "type": "address"
        },
        {
          "indexed": true,
          "internalType": "address",
          "name": "sender",
          "type": "address"
        }
      ],
      "name": "RoleGranted",
      "type": "event"
    },
    {
      "anonymous": false,
      "inputs": [
        {
          "indexed": true,
          "internalType": "bytes32",
          "name": "role",
          "type": "bytes32"
        },
        {
          "indexed": true,
          "internalType": "address",
          "name": "account",
          "type": "address"
        },
        {
          "indexed": true,
          "internalType": "address",
          "name": "sender",
          "type": "address"
        }
      ],
      "name": "RoleRevoked",
      "type": "event"
    },
    {
      "inputs": [],
      "name": "DEFAULT_ADMIN_ROLE",
      "outputs": [
        {
          "internalType": "bytes32",
          "name": "",
          "type": "bytes32"
        }
      ],
      "stateMutability": "view",
      "type": "function"
    },
    {
      "inputs": [],
      "name": "FACTORY_ROLE",
      "outputs": [
        {
          "internalType": "bytes32",
          "name": "",
          "type": "bytes32"
        }
      ],
      "stateMutability": "view",
      "type": "function"
    },
    {
      "inputs": [
        {
          "internalType": "enum IMetaHackerDNA.Generation",
          "name": "generation",
          "type": "uint8"
        },
        {
          "internalType": "uint256",
          "name": "tokenId",
          "type": "uint256"
        }
      ],
      "name": "generateSVG",
      "outputs": [
        {
          "internalType": "string",
          "name": "",
          "type": "string"
        }
      ],
      "stateMutability": "view",
      "type": "function"
    },
    {
      "inputs": [
        {
          "internalType": "enum IMetaHackerDNA.Generation",
          "name": "generation",
          "type": "uint8"
        },
        {
          "internalType": "uint256",
          "name": "tokenId",
          "type": "uint256"
        }
      ],
      "name": "getRanking",
      "outputs": [
        {
          "internalType": "uint8",
          "name": "rank",
          "type": "uint8"
        }
      ],
      "stateMutability": "view",
      "type": "function"
    },
    {
      "inputs": [
        {
          "internalType": "bytes32",
          "name": "role",
          "type": "bytes32"
        }
      ],
      "name": "getRoleAdmin",
      "outputs": [
        {
          "internalType": "bytes32",
          "name": "",
          "type": "bytes32"
        }
      ],
      "stateMutability": "view",
      "type": "function"
    },
    {
      "inputs": [
        {
          "internalType": "enum IMetaHackerDNA.Generation",
          "name": "_generation",
          "type": "uint8"
        },
        {
          "internalType": "uint256",
          "name": "tokenId",
          "type": "uint256"
        }
      ],
      "name": "getTokenTraits",
      "outputs": [
        {
          "components": [
            {
              "internalType": "uint8",
              "name": "backgColor",
              "type": "uint8"
            },
            {
              "internalType": "uint8",
              "name": "bodyColor",
              "type": "uint8"
            },
            {
              "internalType": "uint8",
              "name": "backgShape",
              "type": "uint8"
            },
            {
              "internalType": "uint8",
              "name": "bodyShape",
              "type": "uint8"
            },
            {
              "internalType": "uint8",
              "name": "eyesbShape",
              "type": "uint8"
            },
            {
              "internalType": "uint8",
              "name": "mouthShape",
              "type": "uint8"
            },
            {
              "internalType": "uint8",
              "name": "hairShape",
              "type": "uint8"
            },
            {
              "internalType": "uint8",
              "name": "glassShape",
              "type": "uint8"
            },
            {
              "internalType": "uint8",
              "name": "clothShape",
              "type": "uint8"
            }
          ],
          "internalType": "struct IMetaHackerDNA.Genes",
          "name": "mhtraits",
          "type": "tuple"
        }
      ],
      "stateMutability": "view",
      "type": "function"
    },
    {
      "inputs": [
        {
          "internalType": "enum IMetaHackerDNA.Generation",
          "name": "generation",
          "type": "uint8"
        },
        {
          "internalType": "uint256",
          "name": "tokenId",
          "type": "uint256"
        }
      ],
      "name": "getTraithash",
      "outputs": [
        {
          "internalType": "uint256",
          "name": "traithash",
          "type": "uint256"
        }
      ],
      "stateMutability": "view",
      "type": "function"
    },
    {
      "inputs": [
        {
          "internalType": "bytes32",
          "name": "role",
          "type": "bytes32"
        },
        {
          "internalType": "address",
          "name": "account",
          "type": "address"
        }
      ],
      "name": "grantRole",
      "outputs": [],
      "stateMutability": "nonpayable",
      "type": "function"
    },
    {
      "inputs": [
        {
          "internalType": "bytes32",
          "name": "role",
          "type": "bytes32"
        },
        {
          "internalType": "address",
          "name": "account",
          "type": "address"
        }
      ],
      "name": "hasRole",
      "outputs": [
        {
          "internalType": "bool",
          "name": "",
          "type": "bool"
        }
      ],
      "stateMutability": "view",
      "type": "function"
    },
    {
      "inputs": [
        {
          "internalType": "enum IMetaHackerDNA.Generation",
          "name": "generation",
          "type": "uint8"
        },
        {
          "internalType": "uint256",
          "name": "_tokenId",
          "type": "uint256"
        },
        {
          "internalType": "uint256",
          "name": "seed",
          "type": "uint256"
        }
      ],
      "name": "mhEngineering",
      "outputs": [
        {
          "components": [
            {
              "internalType": "uint8",
              "name": "backgColor",
              "type": "uint8"
            },
            {
              "internalType": "uint8",
              "name": "bodyColor",
              "type": "uint8"
            },
            {
              "internalType": "uint8",
              "name": "backgShape",
              "type": "uint8"
            },
            {
              "internalType": "uint8",
              "name": "bodyShape",
              "type": "uint8"
            },
            {
              "internalType": "uint8",
              "name": "eyesbShape",
              "type": "uint8"
            },
            {
              "internalType": "uint8",
              "name": "mouthShape",
              "type": "uint8"
            },
            {
              "internalType": "uint8",
              "name": "hairShape",
              "type": "uint8"
            },
            {
              "internalType": "uint8",
              "name": "glassShape",
              "type": "uint8"
            },
            {
              "internalType": "uint8",
              "name": "clothShape",
              "type": "uint8"
            }
          ],
          "internalType": "struct IMetaHackerDNA.Genes",
          "name": "rmht",
          "type": "tuple"
        }
      ],
      "stateMutability": "nonpayable",
      "type": "function"
    },
    {
      "inputs": [
        {
          "internalType": "bytes32",
          "name": "role",
          "type": "bytes32"
        },
        {
          "internalType": "address",
          "name": "account",
          "type": "address"
        }
      ],
      "name": "renounceRole",
      "outputs": [],
      "stateMutability": "nonpayable",
      "type": "function"
    },
    {
      "inputs": [
        {
          "internalType": "bytes32",
          "name": "role",
          "type": "bytes32"
        },
        {
          "internalType": "address",
          "name": "account",
          "type": "address"
        }
      ],
      "name": "revokeRole",
      "outputs": [],
      "stateMutability": "nonpayable",
      "type": "function"
    },
    {
      "inputs": [
        {
          "internalType": "bytes4",
          "name": "interfaceId",
          "type": "bytes4"
        }
      ],
      "name": "supportsInterface",
      "outputs": [
        {
          "internalType": "bool",
          "name": "",
          "type": "bool"
        }
      ],
      "stateMutability": "view",
      "type": "function"
    }
  ],
  "bytecode": "0x60806040523480156200001157600080fd5b506040516200389c3803806200389c833981810160405281019062000037919062001192565b6040518060800160405280607361ffff16815260200160dd61ffff16815260200161016a61ffff16815260200161019d61ffff1681525060156000600b81106200008657620000856200120c565b5b019060046200009792919062000bf3565b506040518060800160405280600360ff168152602001600360ff168152602001600360ff168152602001600260ff1681525060206000600b8110620000e157620000e06200120c565b5b01906004620000f292919062000c4b565b506040518060800160405280607361ffff16815260200160dd61ffff16815260200161016a61ffff16815260200161019d61ffff1681525060156001600b81106200014257620001416200120c565b5b019060046200015392919062000bf3565b506040518060800160405280602160ff168152602001601b60ff168152602001600160ff168152602001602c60ff1681525060206001600b81106200019d576200019c6200120c565b5b01906004620001ae92919062000c4b565b50604051806020016040528061045861ffff1681525060156002600b8110620001dc57620001db6200120c565b5b01906001620001ed92919062000cf9565b506040518060200160405280600760ff1681525060206002600b81106200021957620002186200120c565b5b019060016200022a92919062000d51565b50604051806020016040528061045861ffff1681525060156003600b81106200025857620002576200120c565b5b019060016200026992919062000cf9565b506040518060200160405280600460ff1681525060206003600b81106200029557620002946200120c565b5b01906001620002a692919062000d51565b506040518060c00160405280603961ffff168152602001605c61ffff16815260200160a461ffff16815260200160da61ffff16815260200161010c61ffff16815260200161013861ffff1681525060156004600b81106200030c576200030b6200120c565b5b019060066200031d92919062000dff565b506040518060c00160405280600b60ff168152602001602960ff168152602001600d60ff168152602001603260ff168152602001600b60ff168152602001602960ff1681525060206004600b81106200037b576200037a6200120c565b5b019060066200038c92919062000e57565b506040518060e00160405280602b61ffff168152602001603a61ffff168152602001606b61ffff168152602001609961ffff16815260200160e761ffff16815260200160ee61ffff16815260200161011961ffff1681525060156005600b8110620003fc57620003fb6200120c565b5b019060076200040d92919062000f05565b506040518060e00160405280602060ff168152602001602160ff168152602001603660ff168152602001601f60ff168152602001602060ff168152602001603c60ff168152602001601f60ff1681525060206005600b81106200047557620004746200120c565b5b019060076200048692919062000f5d565b506040518060c00160405280603961ffff168152602001605c61ffff16815260200160a461ffff16815260200160da61ffff16815260200161010c61ffff16815260200161013861ffff1681525060156006600b8110620004ec57620004eb6200120c565b5b01906006620004fd92919062000dff565b506040518060e00160405280602b60ff168152602001600d60ff168152602001602b60ff168152602001600d60ff168152602001600c60ff168152602001602b60ff168152602001600d60ff1681525060206006600b81106200056557620005646200120c565b5b019060076200057692919062000f5d565b506040518060c00160405280603961ffff168152602001605c61ffff16815260200160a461ffff16815260200160da61ffff16815260200161010c61ffff16815260200161013861ffff1681525060156007600b8110620005dc57620005db6200120c565b5b01906006620005ed92919062000dff565b506040518060c00160405280600a60ff168152602001601760ff168152602001603360ff168152602001603360ff168152602001600a60ff168152602001603360ff1681525060206007600b81106200064b576200064a6200120c565b5b019060066200065c92919062000e57565b506040518060a00160405280604661ffff16815260200160a261ffff16815260200160dd61ffff16815260200161012b61ffff16815260200161016761ffff1681525060156008600b8110620006b757620006b66200120c565b5b01906005620006c89291906200100b565b506040518060a00160405280603e60ff168152602001603e60ff168152602001603d60ff168152602001603d60ff168152602001603e60ff1681525060206008600b81106200071c576200071b6200120c565b5b019060056200072d92919062001063565b506040518060800160405280600161ffff168152602001600a61ffff168152602001606461ffff1681526020016103e861ffff1681525060016000600581106200077c576200077b6200120c565b5b600402019060046200079092919062001111565b506040518060800160405280600161ffff168152602001600a61ffff168152602001606461ffff1681526020016103e861ffff1681525060018060058110620007de57620007dd6200120c565b5b60040201906004620007f292919062001111565b506040518060800160405280600161ffff168152602001600a61ffff168152602001606461ffff1681526020016103e861ffff1681525060016002600581106200084157620008406200120c565b5b600402019060046200085592919062001111565b506040518060800160405280600161ffff168152602001600a61ffff168152602001606461ffff1681526020016103e861ffff168152506001600360058110620008a457620008a36200120c565b5b60040201906004620008b892919062001111565b506040518060800160405280600161ffff168152602001600a61ffff168152602001606461ffff1681526020016103e861ffff1681525060016004600581106200090757620009066200120c565b5b600402019060046200091b92919062001111565b5080603060006101000a81548173ffffffffffffffffffffffffffffffffffffffff021916908373ffffffffffffffffffffffffffffffffffffffff160217905550620009756000801b6000801b620009f860201b60201c565b620009aa7fdfbefbf47cfe66b701d8cfdbce1de81c821590819cb07e71cb01b6602fb0ee276000801b620009f860201b60201c565b620009bf6000801b3362000a5b60201b60201c565b620009f17fdfbefbf47cfe66b701d8cfdbce1de81c821590819cb07e71cb01b6602fb0ee273362000a5b60201b60201c565b506200125a565b600062000a0b8362000a7160201b60201c565b905081600080858152602001908152602001600020600101819055508181847fbd79b86ffe0ab8e8776151514217cd7cacd52c909f66475c3af44e129f0b00ff60405160405180910390a4505050565b62000a6d828262000a9060201b60201c565b5050565b6000806000838152602001908152602001600020600101549050919050565b62000aa2828262000b8160201b60201c565b62000b7d57600160008084815260200190815260200160002060000160008373ffffffffffffffffffffffffffffffffffffffff1673ffffffffffffffffffffffffffffffffffffffff16815260200190815260200160002060006101000a81548160ff02191690831515021790555062000b2262000beb60201b60201c565b73ffffffffffffffffffffffffffffffffffffffff168173ffffffffffffffffffffffffffffffffffffffff16837f2f8788117e7eff1d82e926ec794901d17c78024a50270940304540a733656f0d60405160405180910390a45b5050565b600080600084815260200190815260200160002060000160008373ffffffffffffffffffffffffffffffffffffffff1673ffffffffffffffffffffffffffffffffffffffff16815260200190815260200160002060009054906101000a900460ff16905092915050565b600033905090565b82805482825590600052602060002090810192821562000c38579160200282015b8281111562000c37578251829061ffff1690559160200191906001019062000c14565b5b50905062000c4791906200115c565b5090565b82805482825590600052602060002090601f0160209004810192821562000ce65791602002820160005b8382111562000cb557835183826101000a81548160ff021916908360ff160217905550926020019260010160208160000104928301926001030262000c75565b801562000ce45782816101000a81549060ff021916905560010160208160000104928301926001030262000cb5565b505b50905062000cf591906200115c565b5090565b82805482825590600052602060002090810192821562000d3e579160200282015b8281111562000d3d578251829061ffff1690559160200191906001019062000d1a565b5b50905062000d4d91906200115c565b5090565b82805482825590600052602060002090601f0160209004810192821562000dec5791602002820160005b8382111562000dbb57835183826101000a81548160ff021916908360ff160217905550926020019260010160208160000104928301926001030262000d7b565b801562000dea5782816101000a81549060ff021916905560010160208160000104928301926001030262000dbb565b505b50905062000dfb91906200115c565b5090565b82805482825590600052602060002090810192821562000e44579160200282015b8281111562000e43578251829061ffff1690559160200191906001019062000e20565b5b50905062000e5391906200115c565b5090565b82805482825590600052602060002090601f0160209004810192821562000ef25791602002820160005b8382111562000ec157835183826101000a81548160ff021916908360ff160217905550926020019260010160208160000104928301926001030262000e81565b801562000ef05782816101000a81549060ff021916905560010160208160000104928301926001030262000ec1565b505b50905062000f0191906200115c565b5090565b82805482825590600052602060002090810192821562000f4a579160200282015b8281111562000f49578251829061ffff1690559160200191906001019062000f26565b5b50905062000f5991906200115c565b5090565b82805482825590600052602060002090601f0160209004810192821562000ff85791602002820160005b8382111562000fc757835183826101000a81548160ff021916908360ff160217905550926020019260010160208160000104928301926001030262000f87565b801562000ff65782816101000a81549060ff021916905560010160208160000104928301926001030262000fc7565b505b5090506200100791906200115c565b5090565b82805482825590600052602060002090810192821562001050579160200282015b828111156200104f578251829061ffff169055916020019190600101906200102c565b5b5090506200105f91906200115c565b5090565b82805482825590600052602060002090601f01602090048101928215620010fe5791602002820160005b83821115620010cd57835183826101000a81548160ff021916908360ff16021790555092602001926001016020816000010492830192600103026200108d565b8015620010fc5782816101000a81549060ff0219169055600101602081600001049283019260010302620010cd565b505b5090506200110d91906200115c565b5090565b826004810192821562001149579160200282015b8281111562001148578251829061ffff1690559160200191906001019062001125565b5b5090506200115891906200115c565b5090565b5b80821115620011775760008160009055506001016200115d565b5090565b6000815190506200118c8162001240565b92915050565b600060208284031215620011ab57620011aa6200123b565b5b6000620011bb848285016200117b565b91505092915050565b6000620011d182620011ec565b9050919050565b6000620011e582620011c4565b9050919050565b600073ffffffffffffffffffffffffffffffffffffffff82169050919050565b7f4e487b7100000000000000000000000000000000000000000000000000000000600052603260045260246000fd5b600080fd5b6200124b81620011d8565b81146200125757600080fd5b50565b612632806200126a6000396000f3fe608060405234801561001057600080fd5b50600436106100cf5760003560e01c80637228fbf41161008c578063a60fde1011610066578063a60fde1014610238578063af64f87c14610268578063bf8c5a2e14610298578063d547741f146102c8576100cf565b80637228fbf4146101ba57806391d14854146101ea578063a217fddf1461021a576100cf565b806301ffc9a7146100d457806304a0fb17146101045780631f76fcb714610122578063248a9ca3146101525780632f2ff15d1461018257806336568abe1461019e575b600080fd5b6100ee60048036038101906100e9919061191c565b6102e4565b6040516100fb9190611d73565b60405180910390f35b61010c61035e565b6040516101199190611d8e565b60405180910390f35b61013c60048036038101906101379190611949565b610382565b6040516101499190611e79565b60405180910390f35b61016c600480360381019061016791906118af565b6103e2565b6040516101799190611d8e565b60405180910390f35b61019c600480360381019061019791906118dc565b610401565b005b6101b860048036038101906101b391906118dc565b61042a565b005b6101d460048036038101906101cf9190611949565b6104ad565b6040516101e19190611e42565b60405180910390f35b61020460048036038101906101ff91906118dc565b610616565b6040516102119190611d73565b60405180910390f35b610222610680565b60405161022f9190611d8e565b60405180910390f35b610252600480360381019061024d9190611949565b610687565b60405161025f9190611e5e565b60405180910390f35b610282600480360381019061027d9190611949565b6106da565b60405161028f9190611de0565b60405180910390f35b6102b260048036038101906102ad9190611989565b61094b565b6040516102bf9190611e42565b60405180910390f35b6102e260048036038101906102dd91906118dc565b610c9c565b005b60007f7965db0b000000000000000000000000000000000000000000000000000000007bffffffffffffffffffffffffffffffffffffffffffffffffffffffff1916827bffffffffffffffffffffffffffffffffffffffffffffffffffffffff19161480610357575061035682610cc5565b5b9050919050565b7fdfbefbf47cfe66b701d8cfdbce1de81c821590819cb07e71cb01b6602fb0ee2781565b6000602e600084600481111561039b5761039a612309565b5b60048111156103ad576103ac612309565b5b8152602001908152602001600020600083815260200190815260200160002060009054906101000a900460ff16905092915050565b6000806000838152602001908152602001600020600101549050919050565b61040a826103e2565b61041b81610416610d2f565b610d37565b6104258383610dd4565b505050565b610432610d2f565b73ffffffffffffffffffffffffffffffffffffffff168173ffffffffffffffffffffffffffffffffffffffff161461049f576040517f08c379a000000000000000000000000000000000000000000000000000000000815260040161049690611e22565b60405180910390fd5b6104a98282610eb4565b5050565b6104b561176f565b602f60008460048111156104cc576104cb612309565b5b60048111156104de576104dd612309565b5b81526020019081526020016000206000838152602001908152602001600020604051806101200160405290816000820160009054906101000a900460ff1660ff1660ff1681526020016000820160019054906101000a900460ff1660ff1660ff1681526020016000820160029054906101000a900460ff1660ff1660ff1681526020016000820160039054906101000a900460ff1660ff1660ff1681526020016000820160049054906101000a900460ff1660ff1660ff1681526020016000820160059054906101000a900460ff1660ff1660ff1681526020016000820160069054906101000a900460ff1660ff1660ff1681526020016000820160079054906101000a900460ff1660ff1660ff1681526020016000820160089054906101000a900460ff1660ff1660ff1681525050905092915050565b600080600084815260200190815260200160002060000160008373ffffffffffffffffffffffffffffffffffffffff1673ffffffffffffffffffffffffffffffffffffffff16815260200190815260200160002060009054906101000a900460ff16905092915050565b6000801b81565b6000602c60008460048111156106a05761069f612309565b5b60048111156106b2576106b1612309565b5b8152602001908152602001600020600083815260200190815260200160002054905092915050565b60606000602f60008560048111156106f5576106f4612309565b5b600481111561070757610706612309565b5b81526020019081526020016000206000848152602001908152602001600020604051806101200160405290816000820160009054906101000a900460ff1660ff1660ff1681526020016000820160019054906101000a900460ff1660ff1660ff1681526020016000820160029054906101000a900460ff1660ff1660ff1681526020016000820160039054906101000a900460ff1660ff1660ff1681526020016000820160049054906101000a900460ff1660ff1660ff1681526020016000820160059054906101000a900460ff1660ff1660ff1681526020016000820160069054906101000a900460ff1660ff1660ff1681526020016000820160079054906101000a900460ff1660ff1660ff1681526020016000820160089054906101000a900460ff1660ff1660ff16815250509050600061084e856000846000015160ff16610f95565b90506000610865866001856020015160ff16610f95565b9050600061087c876002866040015160ff16610f95565b90506000610893886003876060015160ff16610f95565b905060006108aa896004886080015160ff16610f95565b905060006108c18a60058960a0015160ff16610f95565b905060006108d88b60068a60c0015160ff16610f95565b905060006108ef8c60078b60e0015160ff16610f95565b905060006109078d60088c610100015160ff16610f95565b905088888888888888888860405160200161092a99989796959493929190611cc3565b6040516020818303038152906040529a505050505050505050505092915050565b61095361176f565b7fdfbefbf47cfe66b701d8cfdbce1de81c821590819cb07e71cb01b6602fb0ee2761098581610980610d2f565b610d37565b61098f8386611054565b91506000602b60008760048111156109aa576109a9612309565b5b60048111156109bc576109bb612309565b5b815260200190815260200160002060006109d5856111cb565b8152602001908152602001600020541415610c7e5781602f6000876004811115610a0257610a01612309565b5b6004811115610a1457610a13612309565b5b8152602001908152602001600020600086815260200190815260200160002060008201518160000160006101000a81548160ff021916908360ff16021790555060208201518160000160016101000a81548160ff021916908360ff16021790555060408201518160000160026101000a81548160ff021916908360ff16021790555060608201518160000160036101000a81548160ff021916908360ff16021790555060808201518160000160046101000a81548160ff021916908360ff16021790555060a08201518160000160056101000a81548160ff021916908360ff16021790555060c08201518160000160066101000a81548160ff021916908360ff16021790555060e08201518160000160076101000a81548160ff021916908360ff1602179055506101008201518160000160086101000a81548160ff021916908360ff16021790555090505083602b6000876004811115610b7857610b77612309565b5b6004811115610b8a57610b89612309565b5b81526020019081526020016000206000610ba3856111cb565b815260200190815260200160002081905550610bbe826111cb565b602c6000876004811115610bd557610bd4612309565b5b6004811115610be757610be6612309565b5b81526020019081526020016000206000868152602001908152602001600020819055508160000151602e6000876004811115610c2657610c25612309565b5b6004811115610c3857610c37612309565b5b8152602001908152602001600020600086815260200190815260200160002060006101000a81548160ff021916908360ff160217905550610c7985836112e4565b610c94565b610c918585610c8c8661134f565b61094b565b91505b509392505050565b610ca5826103e2565b610cb681610cb1610d2f565b610d37565b610cc08383610eb4565b505050565b60007f01ffc9a7000000000000000000000000000000000000000000000000000000007bffffffffffffffffffffffffffffffffffffffffffffffffffffffff1916827bffffffffffffffffffffffffffffffffffffffffffffffffffffffff1916149050919050565b600033905090565b610d418282610616565b610dd057610d668173ffffffffffffffffffffffffffffffffffffffff166014611382565b610d748360001c6020611382565b604051602001610d85929190611c89565b6040516020818303038152906040526040517f08c379a0000000000000000000000000000000000000000000000000000000008152600401610dc79190611de0565b60405180910390fd5b5050565b610dde8282610616565b610eb057600160008084815260200190815260200160002060000160008373ffffffffffffffffffffffffffffffffffffffff1673ffffffffffffffffffffffffffffffffffffffff16815260200190815260200160002060006101000a81548160ff021916908315150217905550610e55610d2f565b73ffffffffffffffffffffffffffffffffffffffff168173ffffffffffffffffffffffffffffffffffffffff16837f2f8788117e7eff1d82e926ec794901d17c78024a50270940304540a733656f0d60405160405180910390a45b5050565b610ebe8282610616565b15610f9157600080600084815260200190815260200160002060000160008373ffffffffffffffffffffffffffffffffffffffff1673ffffffffffffffffffffffffffffffffffffffff16815260200190815260200160002060006101000a81548160ff021916908315150217905550610f36610d2f565b73ffffffffffffffffffffffffffffffffffffffff168173ffffffffffffffffffffffffffffffffffffffff16837ff6391f5c32d9c69d2a47ea670b442974b53935d1edc7fd64eb21e047a839171b60405160405180910390a45b5050565b6060603060009054906101000a900473ffffffffffffffffffffffffffffffffffffffff1673ffffffffffffffffffffffffffffffffffffffff1663c04a25c78585856040518463ffffffff1660e01b8152600401610ff693929190611da9565b60006040518083038186803b15801561100e57600080fd5b505afa158015611022573d6000803e3d6000fd5b505050506040513d6000823e3d601f19601f8201168201806040525081019061104b91906119dc565b90509392505050565b61105c61176f565b601083901c925061107361ffff84166000846115be565b816000019060ff16908160ff1681525050601083901c925061109b61ffff84166001846115be565b816020019060ff16908160ff1681525050601083901c92506110c361ffff84166002846115be565b816040019060ff16908160ff1681525050601083901c92506110eb61ffff84166003846115be565b816060019060ff16908160ff1681525050601083901c925061111361ffff84166004846115be565b816080019060ff16908160ff1681525050601083901c925061113b61ffff84166005846115be565b8160a0019060ff16908160ff1681525050601083901c925061116361ffff84166006846115be565b8160c0019060ff16908160ff1681525050601083901c925061118b61ffff84166007846115be565b8160e0019060ff16908160ff1681525050601083901c92506111b361ffff84166008846115be565b81610100019060ff16908160ff168152505092915050565b6000806111e06000846000015160ff1661173c565b90506111f46001846020015160ff1661173c565b816111ff9190611f11565b90506112136002846040015160ff1661173c565b8161121e9190611f11565b90506112326003846060015160ff1661173c565b8161123d9190611f11565b90506112516004846080015160ff1661173c565b8161125c9190611f11565b905061127060058460a0015160ff1661173c565b8161127b9190611f11565b905061128f60068460c0015160ff1661173c565b8161129a9190611f11565b90506112ae60078460e0015160ff1661173c565b816112b99190611f11565b90506112ce600884610100015160ff1661173c565b816112d99190611f11565b905080915050919050565b6001602d60008460048111156112fd576112fc612309565b5b600481111561130f5761130e612309565b5b81526020019081526020016000206000836000015160ff16815260200190815260200160002060008282546113449190611f11565b925050819055505050565b6000816040516020016113629190611d58565b6040516020818303038152906040528051906020012060001c9050919050565b60606000600283600261139591906120d8565b61139f9190611f11565b67ffffffffffffffff8111156113b8576113b7612367565b5b6040519080825280601f01601f1916602001820160405280156113ea5781602001600182028036833780820191505090505b5090507f30000000000000000000000000000000000000000000000000000000000000008160008151811061142257611421612338565b5b60200101907effffffffffffffffffffffffffffffffffffffffffffffffffffffffffffff1916908160001a9053507f78000000000000000000000000000000000000000000000000000000000000008160018151811061148657611485612338565b5b60200101907effffffffffffffffffffffffffffffffffffffffffffffffffffffffffffff1916908160001a905350600060018460026114c691906120d8565b6114d09190611f11565b90505b6001811115611570577f3031323334353637383961626364656600000000000000000000000000000000600f86166010811061151257611511612338565b5b1a60f81b82828151811061152957611528612338565b5b60200101907effffffffffffffffffffffffffffffffffffffffffffffffffffffffffffff1916908160001a905350600485901c94508061156990612215565b90506114d3565b50600084146115b4576040517f08c379a00000000000000000000000000000000000000000000000000000000081526004016115ab90611e02565b60405180910390fd5b8091505092915050565b60008060158460ff16600b81106115d8576115d7612338565b5b0180549050856115e8919061227a565b905060158460ff16600b811061160157611600612338565b5b018160ff168154811061161757611616612338565b5b906000526020600020015460108661ffff16901c61ffff1610156116e45760008460ff161480156116d55750600183600481111561165857611657612309565b5b60ff166005811061166c5761166b612338565b5b600402018160ff166004811061168557611684612338565b5b0154602d600085600481111561169e5761169d612309565b5b60048111156116b0576116af612309565b5b815260200190815260200160002060008360ff16815260200190815260200160002054105b156116e35780915050611735565b5b60208460ff16600b81106116fb576116fa612338565b5b018160ff168154811061171157611710612338565b5b90600052602060002090602091828204019190069054906101000a900460ff169150505b9392505050565b600080610100905060008085836117539190611fba565b9150818561176191906120d8565b905080935050505092915050565b604051806101200160405280600060ff168152602001600060ff168152602001600060ff168152602001600060ff168152602001600060ff168152602001600060ff168152602001600060ff168152602001600060ff168152602001600060ff1681525090565b60006117e96117e484611eb9565b611e94565b9050828152602081018484840111156118055761180461239b565b5b6118108482856121e2565b509392505050565b60008135905061182781612590565b92915050565b60008135905061183c816125a7565b92915050565b600081359050611851816125be565b92915050565b600081359050611866816125d5565b92915050565b600082601f83011261188157611880612396565b5b81516118918482602086016117d6565b91505092915050565b6000813590506118a9816125e5565b92915050565b6000602082840312156118c5576118c46123a5565b5b60006118d38482850161182d565b91505092915050565b600080604083850312156118f3576118f26123a5565b5b60006119018582860161182d565b925050602061191285828601611818565b9150509250929050565b600060208284031215611932576119316123a5565b5b600061194084828501611842565b91505092915050565b600080604083850312156119605761195f6123a5565b5b600061196e85828601611857565b925050602061197f8582860161189a565b9150509250929050565b6000806000606084860312156119a2576119a16123a5565b5b60006119b086828701611857565b93505060206119c18682870161189a565b92505060406119d28682870161189a565b9150509250925092565b6000602082840312156119f2576119f16123a5565b5b600082015167ffffffffffffffff811115611a1057611a0f6123a0565b5b611a1c8482850161186c565b91505092915050565b611a2e81612144565b82525050565b611a3d81612150565b82525050565b611a4c816121d0565b82525050565b6000611a5d82611eea565b611a678185611ef5565b9350611a778185602086016121e2565b611a80816123aa565b840191505092915050565b6000611a9682611eea565b611aa08185611f06565b9350611ab08185602086016121e2565b80840191505092915050565b6000611ac9602083611ef5565b9150611ad4826123c8565b602082019050919050565b6000611aec601783611f06565b9150611af7826123f1565b601782019050919050565b6000611b0f600683611f06565b9150611b1a8261241a565b600682019050919050565b6000611b32608783611f06565b9150611b3d82612443565b608782019050919050565b6000611b55601183611f06565b9150611b6082612504565b601182019050919050565b6000611b78602f83611ef5565b9150611b838261252d565b604082019050919050565b61012082016000820151611ba56000850182611c6b565b506020820151611bb86020850182611c6b565b506040820151611bcb6040850182611c6b565b506060820151611bde6060850182611c6b565b506080820151611bf16080850182611c6b565b5060a0820151611c0460a0850182611c6b565b5060c0820151611c1760c0850182611c6b565b5060e0820151611c2a60e0850182611c6b565b50610100820151611c3f610100850182611c6b565b50505050565b611c4e816121b9565b82525050565b611c65611c60826121b9565b612270565b82525050565b611c74816121c3565b82525050565b611c83816121c3565b82525050565b6000611c9482611adf565b9150611ca08285611a8b565b9150611cab82611b48565b9150611cb78284611a8b565b91508190509392505050565b6000611cce82611b25565b9150611cda828c611a8b565b9150611ce6828b611a8b565b9150611cf2828a611a8b565b9150611cfe8289611a8b565b9150611d0a8288611a8b565b9150611d168287611a8b565b9150611d228286611a8b565b9150611d2e8285611a8b565b9150611d3a8284611a8b565b9150611d4582611b02565b91508190509a9950505050505050505050565b6000611d648284611c54565b60208201915081905092915050565b6000602082019050611d886000830184611a25565b92915050565b6000602082019050611da36000830184611a34565b92915050565b6000606082019050611dbe6000830186611a43565b611dcb6020830185611c45565b611dd86040830184611c45565b949350505050565b60006020820190508181036000830152611dfa8184611a52565b905092915050565b60006020820190508181036000830152611e1b81611abc565b9050919050565b60006020820190508181036000830152611e3b81611b6b565b9050919050565b600061012082019050611e586000830184611b8e565b92915050565b6000602082019050611e736000830184611c45565b92915050565b6000602082019050611e8e6000830184611c7a565b92915050565b6000611e9e611eaf565b9050611eaa828261223f565b919050565b6000604051905090565b600067ffffffffffffffff821115611ed457611ed3612367565b5b611edd826123aa565b9050602081019050919050565b600081519050919050565b600082825260208201905092915050565b600081905092915050565b6000611f1c826121b9565b9150611f27836121b9565b9250827fffffffffffffffffffffffffffffffffffffffffffffffffffffffffffffffff03821115611f5c57611f5b6122ab565b5b828201905092915050565b6000808291508390505b6001851115611fb157808604811115611f8d57611f8c6122ab565b5b6001851615611f9c5780820291505b8081029050611faa856123bb565b9450611f71565b94509492505050565b6000611fc5826121b9565b9150611fd0836121c3565b9250611ffd7fffffffffffffffffffffffffffffffffffffffffffffffffffffffffffffffff8484612005565b905092915050565b60008261201557600190506120d1565b8161202357600090506120d1565b8160018114612039576002811461204357612072565b60019150506120d1565b60ff841115612055576120546122ab565b5b8360020a91508482111561206c5761206b6122ab565b5b506120d1565b5060208310610133831016604e8410600b84101617156120a75782820a9050838111156120a2576120a16122ab565b5b6120d1565b6120b48484846001611f67565b925090508184048111156120cb576120ca6122ab565b5b81810290505b9392505050565b60006120e3826121b9565b91506120ee836121b9565b9250817fffffffffffffffffffffffffffffffffffffffffffffffffffffffffffffffff0483118215151615612127576121266122ab565b5b828202905092915050565b600061213d82612199565b9050919050565b60008115159050919050565b6000819050919050565b60007fffffffff0000000000000000000000000000000000000000000000000000000082169050919050565b60008190506121948261257c565b919050565b600073ffffffffffffffffffffffffffffffffffffffff82169050919050565b6000819050919050565b600060ff82169050919050565b60006121db82612186565b9050919050565b60005b838110156122005780820151818401526020810190506121e5565b8381111561220f576000848401525b50505050565b6000612220826121b9565b91506000821415612234576122336122ab565b5b600182039050919050565b612248826123aa565b810181811067ffffffffffffffff8211171561226757612266612367565b5b80604052505050565b6000819050919050565b6000612285826121c3565b9150612290836121c3565b9250826122a05761229f6122da565b5b828206905092915050565b7f4e487b7100000000000000000000000000000000000000000000000000000000600052601160045260246000fd5b7f4e487b7100000000000000000000000000000000000000000000000000000000600052601260045260246000fd5b7f4e487b7100000000000000000000000000000000000000000000000000000000600052602160045260246000fd5b7f4e487b7100000000000000000000000000000000000000000000000000000000600052603260045260246000fd5b7f4e487b7100000000000000000000000000000000000000000000000000000000600052604160045260246000fd5b600080fd5b600080fd5b600080fd5b600080fd5b6000601f19601f8301169050919050565b60008160011c9050919050565b7f537472696e67733a20686578206c656e67746820696e73756666696369656e74600082015250565b7f416363657373436f6e74726f6c3a206163636f756e7420000000000000000000600082015250565b7f3c2f7376673e0000000000000000000000000000000000000000000000000000600082015250565b7f3c73766720786d6c6e733d27687474703a2f2f7777772e77332e6f72672f323060008201527f30302f7376672720786d6c6e733a786c696e6b3d27687474703a2f2f7777772e60208201527f77332e6f72672f313939392f786c696e6b272077696474683d2735303027206860408201527f65696768743d2737353027202076696577426f783d273020333735203230303060608201527f2032323530273e00000000000000000000000000000000000000000000000000608082015250565b7f206973206d697373696e6720726f6c6520000000000000000000000000000000600082015250565b7f416363657373436f6e74726f6c3a2063616e206f6e6c792072656e6f756e636560008201527f20726f6c657320666f722073656c660000000000000000000000000000000000602082015250565b6005811061258d5761258c612309565b5b50565b61259981612132565b81146125a457600080fd5b50565b6125b081612150565b81146125bb57600080fd5b50565b6125c78161215a565b81146125d257600080fd5b50565b600581106125e257600080fd5b50565b6125ee816121b9565b81146125f957600080fd5b5056fea2646970667358221220cea864b1652d76060c0b3a972dfff68bc9472c1a27b79381e987a4626fe1f82064736f6c63430008070033",
  "linkReferences": {},
  "deployedLinkReferences": {}
}