{
  "_format": "hh-sol-artifact-1",
  "contractName": "MetaHackerFactory",
  "sourceName": "contracts/MetaHackerFactory.sol",
  "abi": [
    {
      "inputs": [
        {
          "internalType": "contract IMetaHackerEngineDown",
          "name": "_metaHackerEngine",
          "type": "address"
        },
        {
          "internalType": "uint64",
          "name": "_subId",
          "type": "uint64"
        },
        {
          "internalType": "bytes32",
          "name": "_keyHash",
          "type": "bytes32"
        },
        {
          "internalType": "contract IMetaHackerMotorFactory",
          "name": "_metahackermotorfactory",
          "type": "address"
        },
        {
          "internalType": "contract IMetaHackerMetadata",
          "name": "_metahackermetadata",
          "type": "address"
        },
        {
          "internalType": "address",
          "name": "_VRFCoordinator",
          "type": "address"
        },
        {
          "internalType": "address payable",
          "name": "_winsiders",
          "type": "address"
        }
      ],
      "stateMutability": "nonpayable",
      "type": "constructor"
    },
    {
      "inputs": [
        {
          "internalType": "address",
          "name": "have",
          "type": "address"
        },
        {
          "internalType": "address",
          "name": "want",
          "type": "address"
        }
      ],
      "name": "OnlyCoordinatorCanFulfill",
      "type": "error"
    },
    {
      "anonymous": false,
      "inputs": [
        {
          "indexed": true,
          "internalType": "address",
          "name": "owner",
          "type": "address"
        },
        {
          "indexed": true,
          "internalType": "address",
          "name": "approved",
          "type": "address"
        },
        {
          "indexed": true,
          "internalType": "uint256",
          "name": "tokenId",
          "type": "uint256"
        }
      ],
      "name": "Approval",
      "type": "event"
    },
    {
      "anonymous": false,
      "inputs": [
        {
          "indexed": true,
          "internalType": "address",
          "name": "owner",
          "type": "address"
        },
        {
          "indexed": true,
          "internalType": "address",
          "name": "operator",
          "type": "address"
        },
        {
          "indexed": false,
          "internalType": "bool",
          "name": "approved",
          "type": "bool"
        }
      ],
      "name": "ApprovalForAll",
      "type": "event"
    },
    {
      "anonymous": false,
      "inputs": [
        {
          "indexed": true,
          "internalType": "address",
          "name": "previousOwner",
          "type": "address"
        },
        {
          "indexed": true,
          "internalType": "address",
          "name": "newOwner",
          "type": "address"
        }
      ],
      "name": "OwnershipTransferred",
      "type": "event"
    },
    {
      "anonymous": false,
      "inputs": [
        {
          "indexed": true,
          "internalType": "address",
          "name": "from",
          "type": "address"
        },
        {
          "indexed": true,
          "internalType": "address",
          "name": "to",
          "type": "address"
        },
        {
          "indexed": true,
          "internalType": "uint256",
          "name": "tokenId",
          "type": "uint256"
        }
      ],
      "name": "Transfer",
      "type": "event"
    },
    {
      "anonymous": false,
      "inputs": [
        {
          "indexed": true,
          "internalType": "string",
          "name": "_tokenUri",
          "type": "string"
        },
        {
          "indexed": false,
          "internalType": "string",
          "name": "tokenUri",
          "type": "string"
        }
      ],
      "name": "createUri",
      "type": "event"
    },
    {
      "anonymous": false,
      "inputs": [
        {
          "indexed": true,
          "internalType": "uint256",
          "name": "s_requestId",
          "type": "uint256"
        },
        {
          "indexed": true,
          "internalType": "uint256",
          "name": "tokenId",
          "type": "uint256"
        }
      ],
      "name": "requestedTokenId",
      "type": "event"
    },
    {
      "inputs": [
        {
          "internalType": "address",
          "name": "to",
          "type": "address"
        },
        {
          "internalType": "uint256",
          "name": "tokenId",
          "type": "uint256"
        }
      ],
      "name": "approve",
      "outputs": [],
      "stateMutability": "nonpayable",
      "type": "function"
    },
    {
      "inputs": [
        {
          "internalType": "address",
          "name": "owner",
          "type": "address"
        }
      ],
      "name": "balanceOf",
      "outputs": [
        {
          "internalType": "uint256",
          "name": "",
          "type": "uint256"
        }
      ],
      "stateMutability": "view",
      "type": "function"
    },
    {
      "inputs": [
        {
          "internalType": "uint256",
          "name": "tokenId",
          "type": "uint256"
        }
      ],
      "name": "burn",
      "outputs": [],
      "stateMutability": "nonpayable",
      "type": "function"
    },
    {
      "inputs": [],
      "name": "createToken",
      "outputs": [
        {
          "internalType": "uint256",
          "name": "s_requestId",
          "type": "uint256"
        }
      ],
      "stateMutability": "payable",
      "type": "function"
    },
    {
      "inputs": [
        {
          "internalType": "uint256",
          "name": "tokenId",
          "type": "uint256"
        }
      ],
      "name": "getApproved",
      "outputs": [
        {
          "internalType": "address",
          "name": "",
          "type": "address"
        }
      ],
      "stateMutability": "view",
      "type": "function"
    },
    {
      "inputs": [
        {
          "internalType": "uint256",
          "name": "tokenId",
          "type": "uint256"
        }
      ],
      "name": "getMetaHacker",
      "outputs": [
        {
          "components": [
            {
              "internalType": "uint256",
              "name": "tokenId",
              "type": "uint256"
            },
            {
              "internalType": "uint256",
              "name": "traithash",
              "type": "uint256"
            },
            {
              "internalType": "uint8",
              "name": "generation",
              "type": "uint8"
            },
            {
              "internalType": "uint8",
              "name": "ranking",
              "type": "uint8"
            },
            {
              "internalType": "enum IMetaHackerDNA.Gender",
              "name": "gender",
              "type": "uint8"
            },
            {
              "internalType": "uint8",
              "name": "boosts",
              "type": "uint8"
            },
            {
              "components": [
                {
                  "internalType": "uint256",
                  "name": "bravery",
                  "type": "uint256"
                },
                {
                  "internalType": "uint256",
                  "name": "humor",
                  "type": "uint256"
                },
                {
                  "internalType": "uint256",
                  "name": "imagination",
                  "type": "uint256"
                },
                {
                  "internalType": "uint256",
                  "name": "intelligence",
                  "type": "uint256"
                },
                {
                  "internalType": "uint256",
                  "name": "leadership",
                  "type": "uint256"
                },
                {
                  "internalType": "uint256",
                  "name": "metaversal",
                  "type": "uint256"
                },
                {
                  "internalType": "uint256",
                  "name": "pressureResistance",
                  "type": "uint256"
                },
                {
                  "internalType": "uint256",
                  "name": "social",
                  "type": "uint256"
                },
                {
                  "internalType": "uint256",
                  "name": "teamworking",
                  "type": "uint256"
                },
                {
                  "internalType": "uint256",
                  "name": "technological",
                  "type": "uint256"
                }
              ],
              "internalType": "struct IMetaHackerDNA.Skills",
              "name": "skills",
              "type": "tuple"
            },
            {
              "internalType": "string",
              "name": "dataURLhash",
              "type": "string"
            }
          ],
          "internalType": "struct IMetaHackerDNA.MetaHacker",
          "name": "",
          "type": "tuple"
        }
      ],
      "stateMutability": "view",
      "type": "function"
    },
    {
      "inputs": [
        {
          "internalType": "uint256",
          "name": "_requestId",
          "type": "uint256"
        }
      ],
      "name": "getRand",
      "outputs": [
        {
          "internalType": "uint256",
          "name": "",
          "type": "uint256"
        }
      ],
      "stateMutability": "view",
      "type": "function"
    },
    {
      "inputs": [
        {
          "internalType": "address",
          "name": "owner",
          "type": "address"
        },
        {
          "internalType": "address",
          "name": "operator",
          "type": "address"
        }
      ],
      "name": "isApprovedForAll",
      "outputs": [
        {
          "internalType": "bool",
          "name": "",
          "type": "bool"
        }
      ],
      "stateMutability": "view",
      "type": "function"
    },
    {
      "inputs": [
        {
          "internalType": "string",
          "name": "txHash",
          "type": "string"
        },
        {
          "internalType": "uint256",
          "name": "_tokenId",
          "type": "uint256"
        }
      ],
      "name": "mapMetaBytes",
      "outputs": [],
      "stateMutability": "nonpayable",
      "type": "function"
    },
    {
      "inputs": [
        {
          "internalType": "bytes",
          "name": "_arrayuri",
          "type": "bytes"
        }
      ],
      "name": "metaBytes",
      "outputs": [],
      "stateMutability": "nonpayable",
      "type": "function"
    },
    {
      "inputs": [
        {
          "internalType": "uint256",
          "name": "_requestId",
          "type": "uint256"
        }
      ],
      "name": "metaHackerWIP",
      "outputs": [],
      "stateMutability": "nonpayable",
      "type": "function"
    },
    {
      "inputs": [],
      "name": "name",
      "outputs": [
        {
          "internalType": "string",
          "name": "",
          "type": "string"
        }
      ],
      "stateMutability": "view",
      "type": "function"
    },
    {
      "inputs": [],
      "name": "nftPrice",
      "outputs": [
        {
          "internalType": "uint256",
          "name": "",
          "type": "uint256"
        }
      ],
      "stateMutability": "view",
      "type": "function"
    },
    {
      "inputs": [],
      "name": "owner",
      "outputs": [
        {
          "internalType": "address",
          "name": "",
          "type": "address"
        }
      ],
      "stateMutability": "view",
      "type": "function"
    },
    {
      "inputs": [
        {
          "internalType": "uint256",
          "name": "tokenId",
          "type": "uint256"
        }
      ],
      "name": "ownerOf",
      "outputs": [
        {
          "internalType": "address",
          "name": "",
          "type": "address"
        }
      ],
      "stateMutability": "view",
      "type": "function"
    },
    {
      "inputs": [
        {
          "internalType": "bool",
          "name": "_state",
          "type": "bool"
        }
      ],
      "name": "pause",
      "outputs": [],
      "stateMutability": "nonpayable",
      "type": "function"
    },
    {
      "inputs": [
        {
          "internalType": "uint256",
          "name": "requestId",
          "type": "uint256"
        },
        {
          "internalType": "uint256[]",
          "name": "randomWords",
          "type": "uint256[]"
        }
      ],
      "name": "rawFulfillRandomWords",
      "outputs": [],
      "stateMutability": "nonpayable",
      "type": "function"
    },
    {
      "inputs": [],
      "name": "renounceOwnership",
      "outputs": [],
      "stateMutability": "nonpayable",
      "type": "function"
    },
    {
      "inputs": [
        {
          "internalType": "address",
          "name": "from",
          "type": "address"
        },
        {
          "internalType": "address",
          "name": "to",
          "type": "address"
        },
        {
          "internalType": "uint256",
          "name": "tokenId",
          "type": "uint256"
        }
      ],
      "name": "safeTransferFrom",
      "outputs": [],
      "stateMutability": "nonpayable",
      "type": "function"
    },
    {
      "inputs": [
        {
          "internalType": "address",
          "name": "from",
          "type": "address"
        },
        {
          "internalType": "address",
          "name": "to",
          "type": "address"
        },
        {
          "internalType": "uint256",
          "name": "tokenId",
          "type": "uint256"
        },
        {
          "internalType": "bytes",
          "name": "_data",
          "type": "bytes"
        }
      ],
      "name": "safeTransferFrom",
      "outputs": [],
      "stateMutability": "nonpayable",
      "type": "function"
    },
    {
      "inputs": [
        {
          "internalType": "address",
          "name": "operator",
          "type": "address"
        },
        {
          "internalType": "bool",
          "name": "approved",
          "type": "bool"
        }
      ],
      "name": "setApprovalForAll",
      "outputs": [],
      "stateMutability": "nonpayable",
      "type": "function"
    },
    {
      "inputs": [
        {
          "internalType": "enum IMetaHackerDNA.Generation",
          "name": "_generation",
          "type": "uint8"
        }
      ],
      "name": "setGeneration",
      "outputs": [],
      "stateMutability": "nonpayable",
      "type": "function"
    },
    {
      "inputs": [
        {
          "internalType": "uint256",
          "name": "_newprice",
          "type": "uint256"
        }
      ],
      "name": "setPrice",
      "outputs": [],
      "stateMutability": "nonpayable",
      "type": "function"
    },
    {
      "inputs": [
        {
          "internalType": "uint64",
          "name": "_newsubId",
          "type": "uint64"
        }
      ],
      "name": "setSubId",
      "outputs": [],
      "stateMutability": "nonpayable",
      "type": "function"
    },
    {
      "inputs": [
        {
          "internalType": "address payable",
          "name": "_newadress",
          "type": "address"
        }
      ],
      "name": "setWinsiders",
      "outputs": [],
      "stateMutability": "nonpayable",
      "type": "function"
    },
    {
      "inputs": [],
      "name": "subId",
      "outputs": [
        {
          "internalType": "uint64",
          "name": "",
          "type": "uint64"
        }
      ],
      "stateMutability": "view",
      "type": "function"
    },
    {
      "inputs": [
        {
          "internalType": "bytes4",
          "name": "interfaceId",
          "type": "bytes4"
        }
      ],
      "name": "supportsInterface",
      "outputs": [
        {
          "internalType": "bool",
          "name": "",
          "type": "bool"
        }
      ],
      "stateMutability": "view",
      "type": "function"
    },
    {
      "inputs": [],
      "name": "symbol",
      "outputs": [
        {
          "internalType": "string",
          "name": "",
          "type": "string"
        }
      ],
      "stateMutability": "view",
      "type": "function"
    },
    {
      "inputs": [
        {
          "internalType": "uint256",
          "name": "tokenId",
          "type": "uint256"
        }
      ],
      "name": "tokenURI",
      "outputs": [
        {
          "internalType": "string",
          "name": "",
          "type": "string"
        }
      ],
      "stateMutability": "view",
      "type": "function"
    },
    {
      "inputs": [
        {
          "internalType": "uint256",
          "name": "tokenId",
          "type": "uint256"
        },
        {
          "internalType": "string",
          "name": "_tokenURI",
          "type": "string"
        }
      ],
      "name": "tokenURIng",
      "outputs": [],
      "stateMutability": "nonpayable",
      "type": "function"
    },
    {
      "inputs": [
        {
          "internalType": "address",
          "name": "from",
          "type": "address"
        },
        {
          "internalType": "address",
          "name": "to",
          "type": "address"
        },
        {
          "internalType": "uint256",
          "name": "tokenId",
          "type": "uint256"
        }
      ],
      "name": "transferFrom",
      "outputs": [],
      "stateMutability": "nonpayable",
      "type": "function"
    },
    {
      "inputs": [
        {
          "internalType": "address",
          "name": "newOwner",
          "type": "address"
        }
      ],
      "name": "transferOwnership",
      "outputs": [],
      "stateMutability": "nonpayable",
      "type": "function"
    },
    {
      "inputs": [],
      "name": "withdraw",
      "outputs": [],
      "stateMutability": "payable",
      "type": "function"
    }
  ],
  "bytecode": "0x60a0604052620493e0600d60006101000a81548163ffffffff021916908363ffffffff1602179055506003600d60046101000a81548161ffff021916908361ffff1602179055506001600d60066101000a81548163ffffffff021916908363ffffffff1602179055506606651728988000600e553480156200008057600080fd5b5060405162006123380380620061238339818101604052810190620000a6919062000589565b816040518060400160405280600a81526020017f4d6574614861636b6572000000000000000000000000000000000000000000008152506040518060400160405280600381526020017f4d4857000000000000000000000000000000000000000000000000000000000081525081600090805190602001906200012b92919062000438565b5080600190805190602001906200014492919062000438565b505050620001676200015b6200036a60201b60201c565b6200037260201b60201c565b8073ffffffffffffffffffffffffffffffffffffffff1660808173ffffffffffffffffffffffffffffffffffffffff1660601b815250505081600860006101000a81548173ffffffffffffffffffffffffffffffffffffffff021916908373ffffffffffffffffffffffffffffffffffffffff16021790555086600960006101000a81548173ffffffffffffffffffffffffffffffffffffffff021916908373ffffffffffffffffffffffffffffffffffffffff16021790555082600a60006101000a81548173ffffffffffffffffffffffffffffffffffffffff021916908373ffffffffffffffffffffffffffffffffffffffff16021790555083600b60006101000a81548173ffffffffffffffffffffffffffffffffffffffff021916908373ffffffffffffffffffffffffffffffffffffffff16021790555085600b60166101000a81548167ffffffffffffffff021916908367ffffffffffffffff16021790555084600c8190555080600f60006101000a81548173ffffffffffffffffffffffffffffffffffffffff021916908373ffffffffffffffffffffffffffffffffffffffff1602179055506000600b60156101000a81548160ff0219169083151502179055506000600b60146101000a81548160ff0219169083600481111562000358576200035762000714565b5b0217905550505050505050506200082d565b600033905090565b6000600760009054906101000a900473ffffffffffffffffffffffffffffffffffffffff16905081600760006101000a81548173ffffffffffffffffffffffffffffffffffffffff021916908373ffffffffffffffffffffffffffffffffffffffff1602179055508173ffffffffffffffffffffffffffffffffffffffff168173ffffffffffffffffffffffffffffffffffffffff167f8be0079c531659141344cd1fd0a4f28419497f9722a3daafe3b4186f6b6457e060405160405180910390a35050565b8280546200044690620006de565b90600052602060002090601f0160209004810192826200046a5760008555620004b6565b82601f106200048557805160ff1916838001178555620004b6565b82800160010185558215620004b6579182015b82811115620004b557825182559160200191906001019062000498565b5b509050620004c59190620004c9565b5090565b5b80821115620004e4576000816000905550600101620004ca565b5090565b600081519050620004f98162000777565b92915050565b600081519050620005108162000791565b92915050565b6000815190506200052781620007ab565b92915050565b6000815190506200053e81620007c5565b92915050565b6000815190506200055581620007df565b92915050565b6000815190506200056c81620007f9565b92915050565b600081519050620005838162000813565b92915050565b600080600080600080600060e0888a031215620005ab57620005aa62000772565b5b6000620005bb8a828b016200052d565b9750506020620005ce8a828b0162000572565b9650506040620005e18a828b0162000516565b9550506060620005f48a828b016200055b565b9450506080620006078a828b0162000544565b93505060a06200061a8a828b01620004e8565b92505060c06200062d8a828b01620004ff565b91505092959891949750929550565b60006200064982620006aa565b9050919050565b60006200065d82620006aa565b9050919050565b6000819050919050565b60006200067b826200063c565b9050919050565b60006200068f826200063c565b9050919050565b6000620006a3826200063c565b9050919050565b600073ffffffffffffffffffffffffffffffffffffffff82169050919050565b600067ffffffffffffffff82169050919050565b60006002820490506001821680620006f757607f821691505b602082108114156200070e576200070d62000743565b5b50919050565b7f4e487b7100000000000000000000000000000000000000000000000000000000600052602160045260246000fd5b7f4e487b7100000000000000000000000000000000000000000000000000000000600052602260045260246000fd5b600080fd5b62000782816200063c565b81146200078e57600080fd5b50565b6200079c8162000650565b8114620007a857600080fd5b50565b620007b68162000664565b8114620007c257600080fd5b50565b620007d0816200066e565b8114620007dc57600080fd5b50565b620007ea8162000682565b8114620007f657600080fd5b50565b620008048162000696565b81146200081057600080fd5b50565b6200081e81620006ca565b81146200082a57600080fd5b50565b60805160601c6158d06200085360003960008181610a8c0152610ae001526158d06000f3fe6080604052600436106101ee5760003560e01c806385dc89dd1161010d578063bc83c806116100a0578063df7fbf511161006f578063df7fbf51146106c7578063e985e9c5146106f0578063eb1d28bb1461072d578063f158382c14610758578063f2fde38b14610781576101ee565b8063bc83c8061461060f578063c87b56dd14610638578063c9f91d4114610675578063ce3937ff1461069e576101ee565b80639cbf9e36116100dc5780639cbf9e3614610576578063a22cb46514610594578063b80d700d146105bd578063b88d4fde146105e6576101ee565b806385dc89dd146104ba5780638da5cb5b146104f757806391b7f5ed1461052257806395d89b411461054b576101ee565b80633ccfd60b116101855780635e5201b7116101545780635e5201b7146103ec5780636352211e1461042957806370a0823114610466578063715018a6146104a3576101ee565b80633ccfd60b146103675780633e2831fe1461037157806342842e0e1461039a57806342966c68146103c3576101ee565b8063095ea7b3116101c1578063095ea7b3146102c15780630d39fc81146102ea5780631fe543e31461031557806323b872dd1461033e576101ee565b806301ffc9a7146101f357806302329a291461023057806306fdde0314610259578063081812fc14610284575b600080fd5b3480156101ff57600080fd5b5061021a60048036038101906102159190613de7565b6107aa565b6040516102279190614804565b60405180910390f35b34801561023c57600080fd5b5061025760048036038101906102529190613dba565b6107bc565b005b34801561026557600080fd5b5061026e610855565b60405161027b9190614910565b60405180910390f35b34801561029057600080fd5b506102ab60048036038101906102a69190613fd7565b6108e7565b6040516102b89190614774565b60405180910390f35b3480156102cd57600080fd5b506102e860048036038101906102e39190613d7a565b61096c565b005b3480156102f657600080fd5b506102ff610a84565b60405161030c9190614c6b565b60405180910390f35b34801561032157600080fd5b5061033c60048036038101906103379190614031565b610a8a565b005b34801561034a57600080fd5b5061036560048036038101906103609190613c64565b610b4a565b005b61036f610baa565b005b34801561037d57600080fd5b50610398600480360381019061039391906140e9565b610c91565b005b3480156103a657600080fd5b506103c160048036038101906103bc9190613c64565b610d39565b005b3480156103cf57600080fd5b506103ea60048036038101906103e59190613fd7565b610d59565b005b3480156103f857600080fd5b50610413600480360381019061040e9190613fd7565b610de1565b6040516104209190614c6b565b60405180910390f35b34801561043557600080fd5b50610450600480360381019061044b9190613fd7565b610e7a565b60405161045d9190614774565b60405180910390f35b34801561047257600080fd5b5061048d60048036038101906104889190613bca565b610f2c565b60405161049a9190614c6b565b60405180910390f35b3480156104af57600080fd5b506104b8610fe4565b005b3480156104c657600080fd5b506104e160048036038101906104dc9190613fd7565b61106c565b6040516104ee9190614c49565b60405180910390f35b34801561050357600080fd5b5061050c61125a565b6040516105199190614774565b60405180910390f35b34801561052e57600080fd5b5061054960048036038101906105449190613fd7565b611284565b005b34801561055757600080fd5b5061056061130a565b60405161056d9190614910565b60405180910390f35b61057e61139c565b60405161058b9190614c6b565b60405180910390f35b3480156105a057600080fd5b506105bb60048036038101906105b69190613d3a565b611668565b005b3480156105c957600080fd5b506105e460048036038101906105df9190613e41565b6117e9565b005b3480156105f257600080fd5b5061060d60048036038101906106089190613cb7565b6117ed565b005b34801561061b57600080fd5b5061063660048036038101906106319190613f04565b61184f565b005b34801561064457600080fd5b5061065f600480360381019061065a9190613fd7565b61187b565b60405161066c9190614910565b60405180910390f35b34801561068157600080fd5b5061069c60048036038101906106979190613bf7565b6119cd565b005b3480156106aa57600080fd5b506106c560048036038101906106c0919061408d565b611a8d565b005b3480156106d357600080fd5b506106ee60048036038101906106e99190613e8e565b611ac9565b005b3480156106fc57600080fd5b5061071760048036038101906107129190613c24565b611b72565b6040516107249190614804565b60405180910390f35b34801561073957600080fd5b50610742611c06565b60405161074f9190614c86565b60405180910390f35b34801561076457600080fd5b5061077f600480360381019061077a9190613fd7565b611c20565b005b34801561078d57600080fd5b506107a860048036038101906107a39190613bca565b612139565b005b60006107b582612231565b9050919050565b6107c4612313565b73ffffffffffffffffffffffffffffffffffffffff166107e261125a565b73ffffffffffffffffffffffffffffffffffffffff1614610838576040517f08c379a000000000000000000000000000000000000000000000000000000000815260040161082f90614b49565b60405180910390fd5b80600b60156101000a81548160ff02191690831515021790555050565b60606000805461086490614fbe565b80601f016020809104026020016040519081016040528092919081815260200182805461089090614fbe565b80156108dd5780601f106108b2576101008083540402835291602001916108dd565b820191906000526020600020905b8154815290600101906020018083116108c057829003601f168201915b5050505050905090565b60006108f28261231b565b610931576040517f08c379a000000000000000000000000000000000000000000000000000000000815260040161092890614b09565b60405180910390fd5b6004600083815260200190815260200160002060009054906101000a900473ffffffffffffffffffffffffffffffffffffffff169050919050565b600061097782610e7a565b90508073ffffffffffffffffffffffffffffffffffffffff168373ffffffffffffffffffffffffffffffffffffffff1614156109e8576040517f08c379a00000000000000000000000000000000000000000000000000000000081526004016109df90614bc9565b60405180910390fd5b8073ffffffffffffffffffffffffffffffffffffffff16610a07612313565b73ffffffffffffffffffffffffffffffffffffffff161480610a365750610a3581610a30612313565b611b72565b5b610a75576040517f08c379a0000000000000000000000000000000000000000000000000000000008152600401610a6c90614a49565b60405180910390fd5b610a7f8383612387565b505050565b600e5481565b7f000000000000000000000000000000000000000000000000000000000000000073ffffffffffffffffffffffffffffffffffffffff163373ffffffffffffffffffffffffffffffffffffffff1614610b3c57337f00000000000000000000000000000000000000000000000000000000000000006040517f1cf993f4000000000000000000000000000000000000000000000000000000008152600401610b3392919061478f565b60405180910390fd5b610b468282612440565b5050565b610b5b610b55612313565b826124d3565b610b9a576040517f08c379a0000000000000000000000000000000000000000000000000000000008152600401610b9190614c09565b60405180910390fd5b610ba58383836125b1565b505050565b610bb2612313565b73ffffffffffffffffffffffffffffffffffffffff16610bd061125a565b73ffffffffffffffffffffffffffffffffffffffff1614610c26576040517f08c379a0000000000000000000000000000000000000000000000000000000008152600401610c1d90614b49565b60405180910390fd5b600f60009054906101000a900473ffffffffffffffffffffffffffffffffffffffff1673ffffffffffffffffffffffffffffffffffffffff166108fc479081150290604051600060405180830381858888f19350505050158015610c8e573d6000803e3d6000fd5b50565b610c99612313565b73ffffffffffffffffffffffffffffffffffffffff16610cb761125a565b73ffffffffffffffffffffffffffffffffffffffff1614610d0d576040517f08c379a0000000000000000000000000000000000000000000000000000000008152600401610d0490614b49565b60405180910390fd5b80600b60166101000a81548167ffffffffffffffff021916908367ffffffffffffffff16021790555050565b610d54838383604051806020016040528060008152506117ed565b505050565b610d61612313565b73ffffffffffffffffffffffffffffffffffffffff16610d7f61125a565b73ffffffffffffffffffffffffffffffffffffffff1614610dd5576040517f08c379a0000000000000000000000000000000000000000000000000000000008152600401610dcc90614b49565b60405180910390fd5b610dde8161280d565b50565b6000610deb612313565b73ffffffffffffffffffffffffffffffffffffffff16610e0961125a565b73ffffffffffffffffffffffffffffffffffffffff1614610e5f576040517f08c379a0000000000000000000000000000000000000000000000000000000008152600401610e5690614b49565b60405180910390fd5b60126000838152602001908152602001600020549050919050565b6000806002600084815260200190815260200160002060009054906101000a900473ffffffffffffffffffffffffffffffffffffffff169050600073ffffffffffffffffffffffffffffffffffffffff168173ffffffffffffffffffffffffffffffffffffffff161415610f23576040517f08c379a0000000000000000000000000000000000000000000000000000000008152600401610f1a90614a89565b60405180910390fd5b80915050919050565b60008073ffffffffffffffffffffffffffffffffffffffff168273ffffffffffffffffffffffffffffffffffffffff161415610f9d576040517f08c379a0000000000000000000000000000000000000000000000000000000008152600401610f9490614a69565b60405180910390fd5b600360008373ffffffffffffffffffffffffffffffffffffffff1673ffffffffffffffffffffffffffffffffffffffff168152602001908152602001600020549050919050565b610fec612313565b73ffffffffffffffffffffffffffffffffffffffff1661100a61125a565b73ffffffffffffffffffffffffffffffffffffffff1614611060576040517f08c379a000000000000000000000000000000000000000000000000000000000815260040161105790614b49565b60405180910390fd5b61106a6000612860565b565b611074613446565b6010828154811061108857611087615157565b5b90600052602060002090600e02016040518061010001604052908160008201548152602001600182015481526020016002820160009054906101000a900460ff1660ff1660ff1681526020016002820160019054906101000a900460ff1660ff1660ff1681526020016002820160029054906101000a900460ff166002811115611115576111146150f9565b5b6002811115611127576111266150f9565b5b81526020016002820160039054906101000a900460ff1660ff1660ff16815260200160038201604051806101400160405290816000820154815260200160018201548152602001600282015481526020016003820154815260200160048201548152602001600582015481526020016006820154815260200160078201548152602001600882015481526020016009820154815250508152602001600d820180546111d190614fbe565b80601f01602080910402602001604051908101604052809291908181526020018280546111fd90614fbe565b801561124a5780601f1061121f5761010080835404028352916020019161124a565b820191906000526020600020905b81548152906001019060200180831161122d57829003601f168201915b5050505050815250509050919050565b6000600760009054906101000a900473ffffffffffffffffffffffffffffffffffffffff16905090565b61128c612313565b73ffffffffffffffffffffffffffffffffffffffff166112aa61125a565b73ffffffffffffffffffffffffffffffffffffffff1614611300576040517f08c379a00000000000000000000000000000000000000000000000000000000081526004016112f790614b49565b60405180910390fd5b80600e8190555050565b60606001805461131990614fbe565b80601f016020809104026020016040519081016040528092919081815260200182805461134590614fbe565b80156113925780601f1061136757610100808354040283529160200191611392565b820191906000526020600020905b81548152906001019060200180831161137557829003601f168201915b5050505050905090565b6000600b60159054906101000a900460ff16156113ee576040517f08c379a00000000000000000000000000000000000000000000000000000000081526004016113e590614c29565b60405180910390fd5b6000600b60149054906101000a900460ff166004811115611412576114116150f9565b5b90506000601460008360ff1660ff16815260200190815260200160002080549050905061044c8110611479576040517f08c379a000000000000000000000000000000000000000000000000000000000815260040161147090614be9565b60405180910390fd5b60006010805490509050600e5434146114c7576040517f08c379a00000000000000000000000000000000000000000000000000000000081526004016114be906149e9565b60405180910390fd5b600860009054906101000a900473ffffffffffffffffffffffffffffffffffffffff1673ffffffffffffffffffffffffffffffffffffffff16635d3b1d30600c54600b60169054906101000a900467ffffffffffffffff16600d60049054906101000a900461ffff16600d60009054906101000a900463ffffffff16600d60069054906101000a900463ffffffff166040518663ffffffff1660e01b815260040161157695949392919061481f565b602060405180830381600087803b15801561159057600080fd5b505af11580156115a4573d6000803e3d6000fd5b505050506040513d601f19601f820116820180604052508101906115c89190614004565b9350806013600086815260200190815260200160002081905550336011600086815260200190815260200160002060006101000a81548173ffffffffffffffffffffffffffffffffffffffff021916908373ffffffffffffffffffffffffffffffffffffffff16021790555080847fe9237f5c49476df8804e01852bd334e82f76ba242c97d105985a8e6cbe4b05cc60405160405180910390a350505090565b611670612313565b73ffffffffffffffffffffffffffffffffffffffff168273ffffffffffffffffffffffffffffffffffffffff1614156116de576040517f08c379a00000000000000000000000000000000000000000000000000000000081526004016116d590614a09565b60405180910390fd5b80600560006116eb612313565b73ffffffffffffffffffffffffffffffffffffffff1673ffffffffffffffffffffffffffffffffffffffff16815260200190815260200160002060008473ffffffffffffffffffffffffffffffffffffffff1673ffffffffffffffffffffffffffffffffffffffff16815260200190815260200160002060006101000a81548160ff0219169083151502179055508173ffffffffffffffffffffffffffffffffffffffff16611798612313565b73ffffffffffffffffffffffffffffffffffffffff167f17307eab39ab6107e8899845ad3d59bd9653f200f220920489ca2b5937696c31836040516117dd9190614804565b60405180910390a35050565b5050565b6117fe6117f8612313565b836124d3565b61183d576040517f08c379a000000000000000000000000000000000000000000000000000000000815260040161183490614c09565b60405180910390fd5b61184984848484612926565b50505050565b816015600083815260200190815260200160002090805190602001906118769291906134ac565b505050565b60606118868261231b565b6118c5576040517f08c379a00000000000000000000000000000000000000000000000000000000081526004016118bc90614ae9565b60405180910390fd5b60006006600084815260200190815260200160002080546118e590614fbe565b80601f016020809104026020016040519081016040528092919081815260200182805461191190614fbe565b801561195e5780601f106119335761010080835404028352916020019161195e565b820191906000526020600020905b81548152906001019060200180831161194157829003601f168201915b50505050509050600061196f612982565b90506000815114156119855781925050506119c8565b6000825111156119ba5780826040516020016119a2929190614750565b604051602081830303815290604052925050506119c8565b6119c384612999565b925050505b919050565b6119d5612313565b73ffffffffffffffffffffffffffffffffffffffff166119f361125a565b73ffffffffffffffffffffffffffffffffffffffff1614611a49576040517f08c379a0000000000000000000000000000000000000000000000000000000008152600401611a4090614b49565b60405180910390fd5b80600f60006101000a81548173ffffffffffffffffffffffffffffffffffffffff021916908373ffffffffffffffffffffffffffffffffffffffff16021790555050565b6000600b60149054906101000a900460ff1690506000611aac84612a40565b9050611ab88484612ae5565b611ac3828583612b59565b50505050565b611ad1612313565b73ffffffffffffffffffffffffffffffffffffffff16611aef61125a565b73ffffffffffffffffffffffffffffffffffffffff1614611b45576040517f08c379a0000000000000000000000000000000000000000000000000000000008152600401611b3c90614b49565b60405180910390fd5b80600b60146101000a81548160ff02191690836004811115611b6a57611b696150f9565b5b021790555050565b6000600560008473ffffffffffffffffffffffffffffffffffffffff1673ffffffffffffffffffffffffffffffffffffffff16815260200190815260200160002060008373ffffffffffffffffffffffffffffffffffffffff1673ffffffffffffffffffffffffffffffffffffffff16815260200190815260200160002060009054906101000a900460ff16905092915050565b600b60169054906101000a900467ffffffffffffffff1681565b6000601360008381526020019081526020016000205490506000611c438261187b565b511115611c85576040517f08c379a0000000000000000000000000000000000000000000000000000000008152600401611c7c90614b29565b60405180910390fd5b6000601260008481526020019081526020016000205411611cdb576040517f08c379a0000000000000000000000000000000000000000000000000000000008152600401611cd290614ba9565b60405180910390fd5b6000601260008481526020019081526020016000205490506000600b60149054906101000a900460ff169050600960009054906101000a900473ffffffffffffffffffffffffffffffffffffffff1673ffffffffffffffffffffffffffffffffffffffff1663bf8c5a2e8285856040518463ffffffff1660e01b8152600401611d66939291906148d9565b61012060405180830381600087803b158015611d8157600080fd5b505af1158015611d95573d6000803e3d6000fd5b505050506040513d601f19601f82011682018060405250810190611db99190613f60565b506000600960009054906101000a900473ffffffffffffffffffffffffffffffffffffffff1673ffffffffffffffffffffffffffffffffffffffff1663af64f87c83866040518363ffffffff1660e01b8152600401611e19929190614872565b60006040518083038186803b158015611e3157600080fd5b505afa158015611e45573d6000803e3d6000fd5b505050506040513d6000823e3d601f19601f82011682018060405250810190611e6e9190613ebb565b90506000600a60009054906101000a900473ffffffffffffffffffffffffffffffffffffffff1673ffffffffffffffffffffffffffffffffffffffff16634732ac6184876040518363ffffffff1660e01b8152600401611ecf929190614872565b60006040518083038186803b158015611ee757600080fd5b505afa158015611efb573d6000803e3d6000fd5b505050506040513d6000823e3d601f19601f82011682018060405250810190611f249190613ebb565b90506000600b60009054906101000a900473ffffffffffffffffffffffffffffffffffffffff1673ffffffffffffffffffffffffffffffffffffffff166330d871c6846040518263ffffffff1660e01b8152600401611f839190614910565b60006040518083038186803b158015611f9b57600080fd5b505afa158015611faf573d6000803e3d6000fd5b505050506040513d6000823e3d601f19601f82011682018060405250810190611fd89190613ebb565b90506000600b60009054906101000a900473ffffffffffffffffffffffffffffffffffffffff1673ffffffffffffffffffffffffffffffffffffffff166377505cf183856040518363ffffffff1660e01b8152600401612039929190614932565b60006040518083038186803b15801561205157600080fd5b505afa158015612065573d6000803e3d6000fd5b505050506040513d6000823e3d601f19601f8201168201806040525081019061208e9190613ebb565b9050601460008660048111156120a7576120a66150f9565b5b60ff1660ff168152602001908152602001600020879080600181540180825580915050600190039060005260206000200160009091909190915055806040516120f09190614739565b60405180910390207fe55f7ea3329ccd76aeb809aa1ab28260a96c65bce0dd3a1fff7f92763c32f3c3826040516121279190614910565b60405180910390a25050505050505050565b612141612313565b73ffffffffffffffffffffffffffffffffffffffff1661215f61125a565b73ffffffffffffffffffffffffffffffffffffffff16146121b5576040517f08c379a00000000000000000000000000000000000000000000000000000000081526004016121ac90614b49565b60405180910390fd5b600073ffffffffffffffffffffffffffffffffffffffff168173ffffffffffffffffffffffffffffffffffffffff161415612225576040517f08c379a000000000000000000000000000000000000000000000000000000000815260040161221c90614989565b60405180910390fd5b61222e81612860565b50565b60007f80ac58cd000000000000000000000000000000000000000000000000000000007bffffffffffffffffffffffffffffffffffffffffffffffffffffffff1916827bffffffffffffffffffffffffffffffffffffffffffffffffffffffff191614806122fc57507f5b5e139f000000000000000000000000000000000000000000000000000000007bffffffffffffffffffffffffffffffffffffffffffffffffffffffff1916827bffffffffffffffffffffffffffffffffffffffffffffffffffffffff1916145b8061230c575061230b82612d74565b5b9050919050565b600033905090565b60008073ffffffffffffffffffffffffffffffffffffffff166002600084815260200190815260200160002060009054906101000a900473ffffffffffffffffffffffffffffffffffffffff1673ffffffffffffffffffffffffffffffffffffffff1614159050919050565b816004600083815260200190815260200160002060006101000a81548173ffffffffffffffffffffffffffffffffffffffff021916908373ffffffffffffffffffffffffffffffffffffffff160217905550808273ffffffffffffffffffffffffffffffffffffffff166123fa83610e7a565b73ffffffffffffffffffffffffffffffffffffffff167f8c5be1e5ebec7d5bd14f71427d1e84f3dd0314c0f7b2291e5b200ac8c7c3b92560405160405180910390a45050565b8060008151811061245457612453615157565b5b6020026020010151601260008481526020019081526020016000208190555060006013600084815260200190815260200160002054905060006011600085815260200190815260200160002060009054906101000a900473ffffffffffffffffffffffffffffffffffffffff1690506124cd8183612dde565b50505050565b60006124de8261231b565b61251d576040517f08c379a000000000000000000000000000000000000000000000000000000000815260040161251490614a29565b60405180910390fd5b600061252883610e7a565b90508073ffffffffffffffffffffffffffffffffffffffff168473ffffffffffffffffffffffffffffffffffffffff16148061259757508373ffffffffffffffffffffffffffffffffffffffff1661257f846108e7565b73ffffffffffffffffffffffffffffffffffffffff16145b806125a857506125a78185611b72565b5b91505092915050565b8273ffffffffffffffffffffffffffffffffffffffff166125d182610e7a565b73ffffffffffffffffffffffffffffffffffffffff1614612627576040517f08c379a000000000000000000000000000000000000000000000000000000000815260040161261e90614b69565b60405180910390fd5b600073ffffffffffffffffffffffffffffffffffffffff168273ffffffffffffffffffffffffffffffffffffffff161415612697576040517f08c379a000000000000000000000000000000000000000000000000000000000815260040161268e906149c9565b60405180910390fd5b6126a2838383612dfc565b6126ad600082612387565b6001600360008573ffffffffffffffffffffffffffffffffffffffff1673ffffffffffffffffffffffffffffffffffffffff16815260200190815260200160002060008282546126fd9190614e2f565b925050819055506001600360008473ffffffffffffffffffffffffffffffffffffffff1673ffffffffffffffffffffffffffffffffffffffff16815260200190815260200160002060008282546127549190614da8565b92505081905550816002600083815260200190815260200160002060006101000a81548173ffffffffffffffffffffffffffffffffffffffff021916908373ffffffffffffffffffffffffffffffffffffffff160217905550808273ffffffffffffffffffffffffffffffffffffffff168473ffffffffffffffffffffffffffffffffffffffff167fddf252ad1be2c89b69c2b068fc378daa952ba7f163c4a11628f55a4df523b3ef60405160405180910390a4505050565b61281681612e01565b600060066000838152602001908152602001600020805461283690614fbe565b90501461285d5760066000828152602001908152602001600020600061285c9190613532565b5b50565b6000600760009054906101000a900473ffffffffffffffffffffffffffffffffffffffff16905081600760006101000a81548173ffffffffffffffffffffffffffffffffffffffff021916908373ffffffffffffffffffffffffffffffffffffffff1602179055508173ffffffffffffffffffffffffffffffffffffffff168173ffffffffffffffffffffffffffffffffffffffff167f8be0079c531659141344cd1fd0a4f28419497f9722a3daafe3b4186f6b6457e060405160405180910390a35050565b6129318484846125b1565b61293d84848484612f12565b61297c576040517f08c379a000000000000000000000000000000000000000000000000000000000815260040161297390614969565b60405180910390fd5b50505050565b606060405180602001604052806000815250905090565b60606129a48261231b565b6129e3576040517f08c379a00000000000000000000000000000000000000000000000000000000081526004016129da90614b89565b60405180910390fd5b60006129ed612982565b90506000815111612a0d5760405180602001604052806000815250612a38565b80612a17846130a9565b604051602001612a28929190614750565b6040516020818303038152906040525b915050919050565b6060601560008381526020019081526020016000208054612a6090614fbe565b80601f0160208091040260200160405190810160405280929190818152602001828054612a8c90614fbe565b8015612ad95780601f10612aae57610100808354040283529160200191612ad9565b820191906000526020600020905b815481529060010190602001808311612abc57829003601f168201915b50505050509050919050565b612aee8261231b565b612b2d576040517f08c379a0000000000000000000000000000000000000000000000000000000008152600401612b2490614aa9565b60405180910390fd5b80600660008481526020019081526020016000209080519060200190612b549291906134ac565b505050565b6010600b60009054906101000a900473ffffffffffffffffffffffffffffffffffffffff1673ffffffffffffffffffffffffffffffffffffffff1663c0324d988585856040518463ffffffff1660e01b8152600401612bba9392919061489b565b60006040518083038186803b158015612bd257600080fd5b505afa158015612be6573d6000803e3d6000fd5b505050506040513d6000823e3d601f19601f82011682018060405250810190612c0f9190613f8e565b90806001815401808255809150506001900390600052602060002090600e0201600090919091909150600082015181600001556020820151816001015560408201518160020160006101000a81548160ff021916908360ff16021790555060608201518160020160016101000a81548160ff021916908360ff16021790555060808201518160020160026101000a81548160ff02191690836002811115612cb957612cb86150f9565b5b021790555060a08201518160020160036101000a81548160ff021916908360ff16021790555060c082015181600301600082015181600001556020820151816001015560408201518160020155606082015181600301556080820151816004015560a0820151816005015560c0820151816006015560e0820151816007015561010082015181600801556101208201518160090155505060e082015181600d019080519060200190612d6c9291906134ac565b505050505050565b60007f01ffc9a7000000000000000000000000000000000000000000000000000000007bffffffffffffffffffffffffffffffffffffffffffffffffffffffff1916827bffffffffffffffffffffffffffffffffffffffffffffffffffffffff1916149050919050565b612df882826040518060200160405280600081525061320a565b5050565b505050565b6000612e0c82610e7a565b9050612e1a81600084612dfc565b612e25600083612387565b6001600360008373ffffffffffffffffffffffffffffffffffffffff1673ffffffffffffffffffffffffffffffffffffffff1681526020019081526020016000206000828254612e759190614e2f565b925050819055506002600083815260200190815260200160002060006101000a81549073ffffffffffffffffffffffffffffffffffffffff021916905581600073ffffffffffffffffffffffffffffffffffffffff168273ffffffffffffffffffffffffffffffffffffffff167fddf252ad1be2c89b69c2b068fc378daa952ba7f163c4a11628f55a4df523b3ef60405160405180910390a45050565b6000612f338473ffffffffffffffffffffffffffffffffffffffff16613265565b1561309c578373ffffffffffffffffffffffffffffffffffffffff1663150b7a02612f5c612313565b8786866040518563ffffffff1660e01b8152600401612f7e94939291906147b8565b602060405180830381600087803b158015612f9857600080fd5b505af1925050508015612fc957506040513d601f19601f82011682018060405250810190612fc69190613e14565b60015b61304c573d8060008114612ff9576040519150601f19603f3d011682016040523d82523d6000602084013e612ffe565b606091505b50600081511415613044576040517f08c379a000000000000000000000000000000000000000000000000000000000815260040161303b90614969565b60405180910390fd5b805181602001fd5b63150b7a0260e01b7bffffffffffffffffffffffffffffffffffffffffffffffffffffffff1916817bffffffffffffffffffffffffffffffffffffffffffffffffffffffff1916149150506130a1565b600190505b949350505050565b606060008214156130f1576040518060400160405280600181526020017f30000000000000000000000000000000000000000000000000000000000000008152509050613205565b600082905060005b6000821461312357808061310c90615021565b915050600a8261311c9190614dfe565b91506130f9565b60008167ffffffffffffffff81111561313f5761313e615186565b5b6040519080825280601f01601f1916602001820160405280156131715781602001600182028036833780820191505090505b5090505b600085146131fe5760018261318a9190614e2f565b9150600a85613199919061506a565b60306131a59190614da8565b60f81b8183815181106131bb576131ba615157565b5b60200101907effffffffffffffffffffffffffffffffffffffffffffffffffffffffffffff1916908160001a905350600a856131f79190614dfe565b9450613175565b8093505050505b919050565b6132148383613278565b6132216000848484612f12565b613260576040517f08c379a000000000000000000000000000000000000000000000000000000000815260040161325790614969565b60405180910390fd5b505050565b600080823b905060008111915050919050565b600073ffffffffffffffffffffffffffffffffffffffff168273ffffffffffffffffffffffffffffffffffffffff1614156132e8576040517f08c379a00000000000000000000000000000000000000000000000000000000081526004016132df90614ac9565b60405180910390fd5b6132f18161231b565b15613331576040517f08c379a0000000000000000000000000000000000000000000000000000000008152600401613328906149a9565b60405180910390fd5b61333d60008383612dfc565b6001600360008473ffffffffffffffffffffffffffffffffffffffff1673ffffffffffffffffffffffffffffffffffffffff168152602001908152602001600020600082825461338d9190614da8565b92505081905550816002600083815260200190815260200160002060006101000a81548173ffffffffffffffffffffffffffffffffffffffff021916908373ffffffffffffffffffffffffffffffffffffffff160217905550808273ffffffffffffffffffffffffffffffffffffffff16600073ffffffffffffffffffffffffffffffffffffffff167fddf252ad1be2c89b69c2b068fc378daa952ba7f163c4a11628f55a4df523b3ef60405160405180910390a45050565b6040518061010001604052806000815260200160008152602001600060ff168152602001600060ff16815260200160006002811115613488576134876150f9565b5b8152602001600060ff16815260200161349f613572565b8152602001606081525090565b8280546134b890614fbe565b90600052602060002090601f0160209004810192826134da5760008555613521565b82601f106134f357805160ff1916838001178555613521565b82800160010185558215613521579182015b82811115613520578251825591602001919060010190613505565b5b50905061352e91906135c5565b5090565b50805461353e90614fbe565b6000825580601f10613550575061356f565b601f01602090049060005260206000209081019061356e91906135c5565b5b50565b604051806101400160405280600081526020016000815260200160008152602001600081526020016000815260200160008152602001600081526020016000815260200160008152602001600081525090565b5b808211156135de5760008160009055506001016135c6565b5090565b60006135f56135f084614cc6565b614ca1565b90508083825260208201905082856020860282011115613618576136176151c9565b5b60005b85811015613648578161362e8882613b76565b84526020840193506020830192505060018101905061361b565b5050509392505050565b600061366561366084614cf2565b614ca1565b905082815260208101848484011115613681576136806151ce565b5b61368c848285614f7c565b509392505050565b60006136a76136a284614d23565b614ca1565b9050828152602081018484840111156136c3576136c26151ce565b5b6136ce848285614f7c565b509392505050565b60006136e96136e484614d23565b614ca1565b905082815260208101848484011115613705576137046151ce565b5b613710848285614f8b565b509392505050565b600081359050613727816157d9565b92915050565b60008135905061373c816157f0565b92915050565b600082601f830112613757576137566151ba565b5b81356137678482602086016135e2565b91505092915050565b60008135905061377f81615807565b92915050565b6000813590506137948161581e565b92915050565b6000815190506137a98161581e565b92915050565b60008083601f8401126137c5576137c46151ba565b5b8235905067ffffffffffffffff8111156137e2576137e16151b5565b5b6020830191508360018202830111156137fe576137fd6151c9565b5b9250929050565b600082601f83011261381a576138196151ba565b5b813561382a848260208601613652565b91505092915050565b60008151905061384281615835565b92915050565b60008135905061385781615845565b92915050565b600082601f830112613872576138716151ba565b5b8135613882848260208601613694565b91505092915050565b600082601f8301126138a05761389f6151ba565b5b81516138b08482602086016136d6565b91505092915050565b600061012082840312156138d0576138cf6151bf565b5b6138db610120614ca1565b905060006138eb84828501613bb5565b60008301525060206138ff84828501613bb5565b602083015250604061391384828501613bb5565b604083015250606061392784828501613bb5565b606083015250608061393b84828501613bb5565b60808301525060a061394f84828501613bb5565b60a08301525060c061396384828501613bb5565b60c08301525060e061397784828501613bb5565b60e08301525061010061398c84828501613bb5565b6101008301525092915050565b600061022082840312156139b0576139af6151bf565b5b6139bb610100614ca1565b905060006139cb84828501613b8b565b60008301525060206139df84828501613b8b565b60208301525060406139f384828501613bb5565b6040830152506060613a0784828501613bb5565b6060830152506080613a1b84828501613833565b60808301525060a0613a2f84828501613bb5565b60a08301525060c0613a4384828501613a80565b60c08301525061020082015167ffffffffffffffff811115613a6857613a676151c4565b5b613a748482850161388b565b60e08301525092915050565b60006101408284031215613a9757613a966151bf565b5b613aa2610140614ca1565b90506000613ab284828501613b8b565b6000830152506020613ac684828501613b8b565b6020830152506040613ada84828501613b8b565b6040830152506060613aee84828501613b8b565b6060830152506080613b0284828501613b8b565b60808301525060a0613b1684828501613b8b565b60a08301525060c0613b2a84828501613b8b565b60c08301525060e0613b3e84828501613b8b565b60e083015250610100613b5384828501613b8b565b61010083015250610120613b6984828501613b8b565b6101208301525092915050565b600081359050613b8581615855565b92915050565b600081519050613b9a81615855565b92915050565b600081359050613baf8161586c565b92915050565b600081519050613bc481615883565b92915050565b600060208284031215613be057613bdf6151d8565b5b6000613bee84828501613718565b91505092915050565b600060208284031215613c0d57613c0c6151d8565b5b6000613c1b8482850161372d565b91505092915050565b60008060408385031215613c3b57613c3a6151d8565b5b6000613c4985828601613718565b9250506020613c5a85828601613718565b9150509250929050565b600080600060608486031215613c7d57613c7c6151d8565b5b6000613c8b86828701613718565b9350506020613c9c86828701613718565b9250506040613cad86828701613b76565b9150509250925092565b60008060008060808587031215613cd157613cd06151d8565b5b6000613cdf87828801613718565b9450506020613cf087828801613718565b9350506040613d0187828801613b76565b925050606085013567ffffffffffffffff811115613d2257613d216151d3565b5b613d2e87828801613805565b91505092959194509250565b60008060408385031215613d5157613d506151d8565b5b6000613d5f85828601613718565b9250506020613d7085828601613770565b9150509250929050565b60008060408385031215613d9157613d906151d8565b5b6000613d9f85828601613718565b9250506020613db085828601613b76565b9150509250929050565b600060208284031215613dd057613dcf6151d8565b5b6000613dde84828501613770565b91505092915050565b600060208284031215613dfd57613dfc6151d8565b5b6000613e0b84828501613785565b91505092915050565b600060208284031215613e2a57613e296151d8565b5b6000613e388482850161379a565b91505092915050565b60008060208385031215613e5857613e576151d8565b5b600083013567ffffffffffffffff811115613e7657613e756151d3565b5b613e82858286016137af565b92509250509250929050565b600060208284031215613ea457613ea36151d8565b5b6000613eb284828501613848565b91505092915050565b600060208284031215613ed157613ed06151d8565b5b600082015167ffffffffffffffff811115613eef57613eee6151d3565b5b613efb8482850161388b565b91505092915050565b60008060408385031215613f1b57613f1a6151d8565b5b600083013567ffffffffffffffff811115613f3957613f386151d3565b5b613f458582860161385d565b9250506020613f5685828601613b76565b9150509250929050565b60006101208284031215613f7757613f766151d8565b5b6000613f85848285016138b9565b91505092915050565b600060208284031215613fa457613fa36151d8565b5b600082015167ffffffffffffffff811115613fc257613fc16151d3565b5b613fce84828501613999565b91505092915050565b600060208284031215613fed57613fec6151d8565b5b6000613ffb84828501613b76565b91505092915050565b60006020828403121561401a576140196151d8565b5b600061402884828501613b8b565b91505092915050565b60008060408385031215614048576140476151d8565b5b600061405685828601613b76565b925050602083013567ffffffffffffffff811115614077576140766151d3565b5b61408385828601613742565b9150509250929050565b600080604083850312156140a4576140a36151d8565b5b60006140b285828601613b76565b925050602083013567ffffffffffffffff8111156140d3576140d26151d3565b5b6140df8582860161385d565b9150509250929050565b6000602082840312156140ff576140fe6151d8565b5b600061410d84828501613ba0565b91505092915050565b61411f81614e63565b82525050565b61412e81614e87565b82525050565b61413d81614e93565b82525050565b600061414e82614d54565b6141588185614d6a565b9350614168818560208601614f8b565b614171816151dd565b840191505092915050565b61418581614f58565b82525050565b61419481614f6a565b82525050565b60006141a582614d5f565b6141af8185614d7b565b93506141bf818560208601614f8b565b6141c8816151dd565b840191505092915050565b60006141de82614d5f565b6141e88185614d8c565b93506141f8818560208601614f8b565b614201816151dd565b840191505092915050565b600061421782614d5f565b6142218185614d9d565b9350614231818560208601614f8b565b80840191505092915050565b600061424a603283614d8c565b9150614255826151ee565b604082019050919050565b600061426d602683614d8c565b91506142788261523d565b604082019050919050565b6000614290601c83614d8c565b915061429b8261528c565b602082019050919050565b60006142b3602483614d8c565b91506142be826152b5565b604082019050919050565b60006142d6600b83614d8c565b91506142e182615304565b602082019050919050565b60006142f9601983614d8c565b91506143048261532d565b602082019050919050565b600061431c602c83614d8c565b915061432782615356565b604082019050919050565b600061433f603883614d8c565b915061434a826153a5565b604082019050919050565b6000614362602a83614d8c565b915061436d826153f4565b604082019050919050565b6000614385602983614d8c565b915061439082615443565b604082019050919050565b60006143a8602e83614d8c565b91506143b382615492565b604082019050919050565b60006143cb602083614d8c565b91506143d6826154e1565b602082019050919050565b60006143ee603183614d8c565b91506143f98261550a565b604082019050919050565b6000614411602c83614d8c565b915061441c82615559565b604082019050919050565b6000614434600b83614d8c565b915061443f826155a8565b602082019050919050565b6000614457602083614d8c565b9150614462826155d1565b602082019050919050565b600061447a602983614d8c565b9150614485826155fa565b604082019050919050565b600061449d602f83614d8c565b91506144a882615649565b604082019050919050565b60006144c0600a83614d8c565b91506144cb82615698565b602082019050919050565b60006144e3602183614d8c565b91506144ee826156c1565b604082019050919050565b6000614506600983614d8c565b915061451182615710565b602082019050919050565b6000614529603183614d8c565b915061453482615739565b604082019050919050565b600061454c600683614d8c565b915061455782615788565b602082019050919050565b60006102208301600083015161457b60008601826146ee565b50602083015161458e60208601826146ee565b5060408301516145a1604086018261472a565b5060608301516145b4606086018261472a565b5060808301516145c7608086018261417c565b5060a08301516145da60a086018261472a565b5060c08301516145ed60c0860182614613565b5060e0830151848203610200860152614606828261419a565b9150508091505092915050565b6101408201600082015161462a60008501826146ee565b50602082015161463d60208501826146ee565b50604082015161465060408501826146ee565b50606082015161466360608501826146ee565b50608082015161467660808501826146ee565b5060a082015161468960a08501826146ee565b5060c082015161469c60c08501826146ee565b5060e08201516146af60e08501826146ee565b506101008201516146c46101008501826146ee565b506101208201516146d96101208501826146ee565b50505050565b6146e881614eef565b82525050565b6146f781614f1d565b82525050565b61470681614f1d565b82525050565b61471581614f27565b82525050565b61472481614f37565b82525050565b61473381614f4b565b82525050565b6000614745828461420c565b915081905092915050565b600061475c828561420c565b9150614768828461420c565b91508190509392505050565b60006020820190506147896000830184614116565b92915050565b60006040820190506147a46000830185614116565b6147b16020830184614116565b9392505050565b60006080820190506147cd6000830187614116565b6147da6020830186614116565b6147e760408301856146fd565b81810360608301526147f98184614143565b905095945050505050565b60006020820190506148196000830184614125565b92915050565b600060a0820190506148346000830188614134565b614841602083018761471b565b61484e60408301866146df565b61485b606083018561470c565b614868608083018461470c565b9695505050505050565b6000604082019050614887600083018561418b565b61489460208301846146fd565b9392505050565b60006060820190506148b0600083018661418b565b6148bd60208301856146fd565b81810360408301526148cf81846141d3565b9050949350505050565b60006060820190506148ee600083018661418b565b6148fb60208301856146fd565b61490860408301846146fd565b949350505050565b6000602082019050818103600083015261492a81846141d3565b905092915050565b6000604082019050818103600083015261494c81856141d3565b9050818103602083015261496081846141d3565b90509392505050565b600060208201905081810360008301526149828161423d565b9050919050565b600060208201905081810360008301526149a281614260565b9050919050565b600060208201905081810360008301526149c281614283565b9050919050565b600060208201905081810360008301526149e2816142a6565b9050919050565b60006020820190508181036000830152614a02816142c9565b9050919050565b60006020820190508181036000830152614a22816142ec565b9050919050565b60006020820190508181036000830152614a428161430f565b9050919050565b60006020820190508181036000830152614a6281614332565b9050919050565b60006020820190508181036000830152614a8281614355565b9050919050565b60006020820190508181036000830152614aa281614378565b9050919050565b60006020820190508181036000830152614ac28161439b565b9050919050565b60006020820190508181036000830152614ae2816143be565b9050919050565b60006020820190508181036000830152614b02816143e1565b9050919050565b60006020820190508181036000830152614b2281614404565b9050919050565b60006020820190508181036000830152614b4281614427565b9050919050565b60006020820190508181036000830152614b628161444a565b9050919050565b60006020820190508181036000830152614b828161446d565b9050919050565b60006020820190508181036000830152614ba281614490565b9050919050565b60006020820190508181036000830152614bc2816144b3565b9050919050565b60006020820190508181036000830152614be2816144d6565b9050919050565b60006020820190508181036000830152614c02816144f9565b9050919050565b60006020820190508181036000830152614c228161451c565b9050919050565b60006020820190508181036000830152614c428161453f565b9050919050565b60006020820190508181036000830152614c638184614562565b905092915050565b6000602082019050614c8060008301846146fd565b92915050565b6000602082019050614c9b600083018461471b565b92915050565b6000614cab614cbc565b9050614cb78282614ff0565b919050565b6000604051905090565b600067ffffffffffffffff821115614ce157614ce0615186565b5b602082029050602081019050919050565b600067ffffffffffffffff821115614d0d57614d0c615186565b5b614d16826151dd565b9050602081019050919050565b600067ffffffffffffffff821115614d3e57614d3d615186565b5b614d47826151dd565b9050602081019050919050565b600081519050919050565b600081519050919050565b600082825260208201905092915050565b600082825260208201905092915050565b600082825260208201905092915050565b600081905092915050565b6000614db382614f1d565b9150614dbe83614f1d565b9250827fffffffffffffffffffffffffffffffffffffffffffffffffffffffffffffffff03821115614df357614df261509b565b5b828201905092915050565b6000614e0982614f1d565b9150614e1483614f1d565b925082614e2457614e236150ca565b5b828204905092915050565b6000614e3a82614f1d565b9150614e4583614f1d565b925082821015614e5857614e5761509b565b5b828203905092915050565b6000614e6e82614efd565b9050919050565b6000614e8082614efd565b9050919050565b60008115159050919050565b6000819050919050565b60007fffffffff0000000000000000000000000000000000000000000000000000000082169050919050565b6000819050614ed7826157b1565b919050565b6000819050614eea826157c5565b919050565b600061ffff82169050919050565b600073ffffffffffffffffffffffffffffffffffffffff82169050919050565b6000819050919050565b600063ffffffff82169050919050565b600067ffffffffffffffff82169050919050565b600060ff82169050919050565b6000614f6382614ec9565b9050919050565b6000614f7582614edc565b9050919050565b82818337600083830152505050565b60005b83811015614fa9578082015181840152602081019050614f8e565b83811115614fb8576000848401525b50505050565b60006002820490506001821680614fd657607f821691505b60208210811415614fea57614fe9615128565b5b50919050565b614ff9826151dd565b810181811067ffffffffffffffff8211171561501857615017615186565b5b80604052505050565b600061502c82614f1d565b91507fffffffffffffffffffffffffffffffffffffffffffffffffffffffffffffffff82141561505f5761505e61509b565b5b600182019050919050565b600061507582614f1d565b915061508083614f1d565b9250826150905761508f6150ca565b5b828206905092915050565b7f4e487b7100000000000000000000000000000000000000000000000000000000600052601160045260246000fd5b7f4e487b7100000000000000000000000000000000000000000000000000000000600052601260045260246000fd5b7f4e487b7100000000000000000000000000000000000000000000000000000000600052602160045260246000fd5b7f4e487b7100000000000000000000000000000000000000000000000000000000600052602260045260246000fd5b7f4e487b7100000000000000000000000000000000000000000000000000000000600052603260045260246000fd5b7f4e487b7100000000000000000000000000000000000000000000000000000000600052604160045260246000fd5b600080fd5b600080fd5b600080fd5b600080fd5b600080fd5b600080fd5b600080fd5b600080fd5b6000601f19601f8301169050919050565b7f4552433732313a207472616e7366657220746f206e6f6e20455243373231526560008201527f63656976657220696d706c656d656e7465720000000000000000000000000000602082015250565b7f4f776e61626c653a206e6577206f776e657220697320746865207a65726f206160008201527f6464726573730000000000000000000000000000000000000000000000000000602082015250565b7f4552433732313a20746f6b656e20616c7265616479206d696e74656400000000600082015250565b7f4552433732313a207472616e7366657220746f20746865207a65726f2061646460008201527f7265737300000000000000000000000000000000000000000000000000000000602082015250565b7f6e656564732066756e6473000000000000000000000000000000000000000000600082015250565b7f4552433732313a20617070726f766520746f2063616c6c657200000000000000600082015250565b7f4552433732313a206f70657261746f7220717565727920666f72206e6f6e657860008201527f697374656e7420746f6b656e0000000000000000000000000000000000000000602082015250565b7f4552433732313a20617070726f76652063616c6c6572206973206e6f74206f7760008201527f6e6572206e6f7220617070726f76656420666f7220616c6c0000000000000000602082015250565b7f4552433732313a2062616c616e636520717565727920666f7220746865207a6560008201527f726f206164647265737300000000000000000000000000000000000000000000602082015250565b7f4552433732313a206f776e657220717565727920666f72206e6f6e657869737460008201527f656e7420746f6b656e0000000000000000000000000000000000000000000000602082015250565b7f45524337323155524953746f726167653a2055524920736574206f66206e6f6e60008201527f6578697374656e7420746f6b656e000000000000000000000000000000000000602082015250565b7f4552433732313a206d696e7420746f20746865207a65726f2061646472657373600082015250565b7f45524337323155524953746f726167653a2055524920717565727920666f722060008201527f6e6f6e6578697374656e7420746f6b656e000000000000000000000000000000602082015250565b7f4552433732313a20617070726f76656420717565727920666f72206e6f6e657860008201527f697374656e7420746f6b656e0000000000000000000000000000000000000000602082015250565b7f55524920616c7265616479000000000000000000000000000000000000000000600082015250565b7f4f776e61626c653a2063616c6c6572206973206e6f7420746865206f776e6572600082015250565b7f4552433732313a207472616e73666572206f6620746f6b656e2074686174206960008201527f73206e6f74206f776e0000000000000000000000000000000000000000000000602082015250565b7f4552433732314d657461646174613a2055524920717565727920666f72206e6f60008201527f6e6578697374656e7420746f6b656e0000000000000000000000000000000000602082015250565b7f6e6f2072616e646e756d00000000000000000000000000000000000000000000600082015250565b7f4552433732313a20617070726f76616c20746f2063757272656e74206f776e6560008201527f7200000000000000000000000000000000000000000000000000000000000000602082015250565b7f67656e652066756c6c0000000000000000000000000000000000000000000000600082015250565b7f4552433732313a207472616e736665722063616c6c6572206973206e6f74206f60008201527f776e6572206e6f7220617070726f766564000000000000000000000000000000602082015250565b7f7061757365640000000000000000000000000000000000000000000000000000600082015250565b600381106157c2576157c16150f9565b5b50565b600581106157d6576157d56150f9565b5b50565b6157e281614e63565b81146157ed57600080fd5b50565b6157f981614e75565b811461580457600080fd5b50565b61581081614e87565b811461581b57600080fd5b50565b61582781614e9d565b811461583257600080fd5b50565b6003811061584257600080fd5b50565b6005811061585257600080fd5b50565b61585e81614f1d565b811461586957600080fd5b50565b61587581614f37565b811461588057600080fd5b50565b61588c81614f4b565b811461589757600080fd5b5056fea2646970667358221220ccfd57c24da3c90f8c9507cfe63f5525d61cedf4a63dda91dc354ab445cf42cd64736f6c63430008070033",
  "linkReferences": {},
  "deployedLinkReferences": {}
}